{
  "contractName": "Administrable",
  "abi": [
    {
      "constant": false,
      "inputs": [],
      "name": "renounceOwnership",
      "outputs": [],
      "payable": false,
      "stateMutability": "nonpayable",
      "type": "function"
    },
    {
      "constant": true,
      "inputs": [
        {
          "name": "",
          "type": "address"
        }
      ],
      "name": "administrators",
      "outputs": [
        {
          "name": "",
          "type": "bool"
        }
      ],
      "payable": false,
      "stateMutability": "view",
      "type": "function"
    },
    {
      "constant": true,
      "inputs": [],
      "name": "owner",
      "outputs": [
        {
          "name": "",
          "type": "address"
        }
      ],
      "payable": false,
      "stateMutability": "view",
      "type": "function"
    },
    {
      "constant": false,
      "inputs": [
        {
          "name": "_newOwner",
          "type": "address"
        }
      ],
      "name": "transferOwnership",
      "outputs": [],
      "payable": false,
      "stateMutability": "nonpayable",
      "type": "function"
    },
    {
      "anonymous": false,
      "inputs": [
        {
          "indexed": false,
          "name": "administrator",
          "type": "address"
        }
      ],
      "name": "AddAdministrator",
      "type": "event"
    },
    {
      "anonymous": false,
      "inputs": [
        {
          "indexed": false,
          "name": "administrator",
          "type": "address"
        }
      ],
      "name": "RemoveAdministrator",
      "type": "event"
    },
    {
      "anonymous": false,
      "inputs": [
        {
          "indexed": true,
          "name": "previousOwner",
          "type": "address"
        }
      ],
      "name": "OwnershipRenounced",
      "type": "event"
    },
    {
      "anonymous": false,
      "inputs": [
        {
          "indexed": true,
          "name": "previousOwner",
          "type": "address"
        },
        {
          "indexed": true,
          "name": "newOwner",
          "type": "address"
        }
      ],
      "name": "OwnershipTransferred",
      "type": "event"
    },
    {
      "constant": true,
      "inputs": [
        {
          "name": "_address",
          "type": "address"
        }
      ],
      "name": "isAdministrator",
      "outputs": [
        {
          "name": "",
          "type": "bool"
        }
      ],
      "payable": false,
      "stateMutability": "view",
      "type": "function"
    },
    {
      "constant": false,
      "inputs": [
        {
          "name": "_address",
          "type": "address"
        }
      ],
      "name": "addAdministrator",
      "outputs": [],
      "payable": false,
      "stateMutability": "nonpayable",
      "type": "function"
    },
    {
      "constant": false,
      "inputs": [
        {
          "name": "_address",
          "type": "address"
        }
      ],
      "name": "removeAdministrator",
      "outputs": [],
      "payable": false,
      "stateMutability": "nonpayable",
      "type": "function"
    }
  ],
  "bytecode": "0x608060405260008054600160a060020a03191633179055610412806100256000396000f3006080604052600436106100825763ffffffff7c01000000000000000000000000000000000000000000000000000000006000350416630a2eb301811461008757806368fa8134146100bc578063715018a6146100df57806376be1585146100f45780638da5cb5b14610115578063c999117614610146578063f2fde38b14610167575b600080fd5b34801561009357600080fd5b506100a8600160a060020a0360043516610188565b604080519115158252519081900360200190f35b3480156100c857600080fd5b506100dd600160a060020a03600435166101a6565b005b3480156100eb57600080fd5b506100dd61022b565b34801561010057600080fd5b506100a8600160a060020a0360043516610297565b34801561012157600080fd5b5061012a6102ac565b60408051600160a060020a039092168252519081900360200190f35b34801561015257600080fd5b506100dd600160a060020a03600435166102bb565b34801561017357600080fd5b506100dd600160a060020a0360043516610346565b600160a060020a031660009081526001602052604090205460ff1690565b600054600160a060020a03163314806101c357506101c333610188565b15156101ce57600080fd5b60408051600160a060020a038316815290517f5e40a439a19faa971f5d14cf300dcd7ee0d236808b9a988c9b4ca89cb833e9619181900360200190a1600160a060020a03166000908152600160205260409020805460ff19169055565b600054600160a060020a0316331461024257600080fd5b60008054604051600160a060020a03909116917ff8df31144d9c2f0f6b59d69b8b98abd5459d07f2742c4df920b25aae33c6482091a26000805473ffffffffffffffffffffffffffffffffffffffff19169055565b60016020526000908152604090205460ff1681565b600054600160a060020a031681565b600054600160a060020a03163314806102d857506102d833610188565b15156102e357600080fd5b60408051600160a060020a038316815290517f6e5eedde7d0d690d55dea362660be04ef1eb36252e48817545afb1ae6b245a409181900360200190a1600160a060020a03166000908152600160208190526040909120805460ff19169091179055565b600054600160a060020a0316331461035d57600080fd5b61036681610369565b50565b600160a060020a038116151561037e57600080fd5b60008054604051600160a060020a03808516939216917f8be0079c531659141344cd1fd0a4f28419497f9722a3daafe3b4186f6b6457e091a36000805473ffffffffffffffffffffffffffffffffffffffff1916600160a060020a03929092169190911790555600a165627a7a723058202128ef9fe9d55dfeeedacdb5db104d055d5fc919e6bb5b58a4a1fe3feb560bd70029",
  "source": "pragma solidity ^0.4.24;\n\nimport 'zeppelin-solidity/contracts/ownership/Ownable.sol';\n\n/**\n * @title Administrable\n */\ncontract Administrable is Ownable {\n  mapping (address => bool) public administrators;\n  event AddAdministrator(address administrator);\n  event RemoveAdministrator(address administrator);\n\n  /**\n   * @dev Throws if an account that is not an admin\n   */\n  modifier onlyAdministrator() {\n    require(msg.sender == owner || isAdministrator(msg.sender));\n    _;\n  }\n\n  function isAdministrator(address _address) public view returns (bool) {\n    return administrators[_address];\n  }\n\n  function addAdministrator(address _address) onlyAdministrator public {\n    emit AddAdministrator(_address);\n    administrators[_address] = true;\n  }\n\n  function removeAdministrator(address _address) onlyAdministrator public {\n    emit RemoveAdministrator(_address);\n    administrators[_address] = false;\n  }\n\n}\n",
  "sourcePath": "/home/mark/drive/development/c50/contracts/Administrable.sol",
  "compiler": {
    "name": "solc",
    "version": "0.4.24+commit.e67f0147.Emscripten.clang"
  },
  "schemaVersion": "2.0.1",
  "updatedAt": "2018-10-06T09:52:00.313Z"
}