{
  "contractName": "Administrable",
  "abi": [
    {
      "constant": false,
      "inputs": [],
      "name": "renounceOwnership",
      "outputs": [],
      "payable": false,
      "stateMutability": "nonpayable",
      "type": "function"
    },
    {
      "constant": true,
      "inputs": [
        {
          "name": "",
          "type": "address"
        }
      ],
      "name": "administrators",
      "outputs": [
        {
          "name": "",
          "type": "bool"
        }
      ],
      "payable": false,
      "stateMutability": "view",
      "type": "function"
    },
    {
      "constant": true,
      "inputs": [],
      "name": "owner",
      "outputs": [
        {
          "name": "",
          "type": "address"
        }
      ],
      "payable": false,
      "stateMutability": "view",
      "type": "function"
    },
    {
      "constant": true,
      "inputs": [],
      "name": "isOwner",
      "outputs": [
        {
          "name": "",
          "type": "bool"
        }
      ],
      "payable": false,
      "stateMutability": "view",
      "type": "function"
    },
    {
      "constant": false,
      "inputs": [
        {
          "name": "newOwner",
          "type": "address"
        }
      ],
      "name": "transferOwnership",
      "outputs": [],
      "payable": false,
      "stateMutability": "nonpayable",
      "type": "function"
    },
    {
      "anonymous": false,
      "inputs": [
        {
          "indexed": false,
          "name": "administrator",
          "type": "address"
        }
      ],
      "name": "AddAdministrator",
      "type": "event"
    },
    {
      "anonymous": false,
      "inputs": [
        {
          "indexed": false,
          "name": "administrator",
          "type": "address"
        }
      ],
      "name": "RemoveAdministrator",
      "type": "event"
    },
    {
      "anonymous": false,
      "inputs": [
        {
          "indexed": true,
          "name": "previousOwner",
          "type": "address"
        },
        {
          "indexed": true,
          "name": "newOwner",
          "type": "address"
        }
      ],
      "name": "OwnershipTransferred",
      "type": "event"
    },
    {
      "constant": true,
      "inputs": [
        {
          "name": "_address",
          "type": "address"
        }
      ],
      "name": "isAdministrator",
      "outputs": [
        {
          "name": "",
          "type": "bool"
        }
      ],
      "payable": false,
      "stateMutability": "view",
      "type": "function"
    },
    {
      "constant": false,
      "inputs": [
        {
          "name": "_address",
          "type": "address"
        }
      ],
      "name": "addAdministrator",
      "outputs": [],
      "payable": false,
      "stateMutability": "nonpayable",
      "type": "function"
    },
    {
      "constant": false,
      "inputs": [
        {
          "name": "_address",
          "type": "address"
        }
      ],
      "name": "removeAdministrator",
      "outputs": [],
      "payable": false,
      "stateMutability": "nonpayable",
      "type": "function"
    }
  ],
  "bytecode": "0x6080604081905260008054600160a060020a0319163317808255600160a060020a0316917f8be0079c531659141344cd1fd0a4f28419497f9722a3daafe3b4186f6b6457e0908290a36104b3806100576000396000f3fe60806040526004361061008d5763ffffffff7c01000000000000000000000000000000000000000000000000000000006000350416630a2eb301811461009257806368fa8134146100d9578063715018a61461010e57806376be1585146101235780638da5cb5b146101565780638f32d59b14610187578063c99911761461019c578063f2fde38b146101cf575b600080fd5b34801561009e57600080fd5b506100c5600480360360208110156100b557600080fd5b5035600160a060020a0316610202565b604080519115158252519081900360200190f35b3480156100e557600080fd5b5061010c600480360360208110156100fc57600080fd5b5035600160a060020a0316610220565b005b34801561011a57600080fd5b5061010c6102b3565b34801561012f57600080fd5b506100c56004803603602081101561014657600080fd5b5035600160a060020a031661031d565b34801561016257600080fd5b5061016b610332565b60408051600160a060020a039092168252519081900360200190f35b34801561019357600080fd5b506100c5610341565b3480156101a857600080fd5b5061010c600480360360208110156101bf57600080fd5b5035600160a060020a0316610352565b3480156101db57600080fd5b5061010c600480360360208110156101f257600080fd5b5035600160a060020a03166103eb565b600160a060020a031660009081526001602052604090205460ff1690565b610228610332565b600160a060020a031633600160a060020a0316148061024b575061024b33610202565b151561025657600080fd5b60408051600160a060020a038316815290517f5e40a439a19faa971f5d14cf300dcd7ee0d236808b9a988c9b4ca89cb833e9619181900360200190a1600160a060020a03166000908152600160205260409020805460ff19169055565b6102bb610341565b15156102c657600080fd5b60008054604051600160a060020a03909116907f8be0079c531659141344cd1fd0a4f28419497f9722a3daafe3b4186f6b6457e0908390a36000805473ffffffffffffffffffffffffffffffffffffffff19169055565b60016020526000908152604090205460ff1681565b600054600160a060020a031690565b600054600160a060020a0316331490565b61035a610332565b600160a060020a031633600160a060020a0316148061037d575061037d33610202565b151561038857600080fd5b60408051600160a060020a038316815290517f6e5eedde7d0d690d55dea362660be04ef1eb36252e48817545afb1ae6b245a409181900360200190a1600160a060020a03166000908152600160208190526040909120805460ff19169091179055565b6103f3610341565b15156103fe57600080fd5b6104078161040a565b50565b600160a060020a038116151561041f57600080fd5b60008054604051600160a060020a03808516939216917f8be0079c531659141344cd1fd0a4f28419497f9722a3daafe3b4186f6b6457e091a36000805473ffffffffffffffffffffffffffffffffffffffff1916600160a060020a039290921691909117905556fea165627a7a72305820520148042acc96b88ac0d9e60647af65ea7b926ad02a17176e51561bde9269be0029",
  "source": "pragma solidity ^0.5.0;\n\nimport 'openzeppelin-solidity/contracts/ownership/Ownable.sol';\n\n/**\n * @title Administrable\n */\ncontract Administrable is Ownable {\n  mapping (address => bool) public administrators;\n  event AddAdministrator(address administrator);\n  event RemoveAdministrator(address administrator);\n\n  /**\n   * @dev Throws if an account that is not an admin\n   */\n  modifier onlyAdministrator() {\n    require(msg.sender == owner() || isAdministrator(msg.sender));\n    _;\n  }\n\n  function isAdministrator(address _address) public view returns (bool) {\n    return administrators[_address];\n  }\n\n  function addAdministrator(address _address) onlyAdministrator public {\n    emit AddAdministrator(_address);\n    administrators[_address] = true;\n  }\n\n  function removeAdministrator(address _address) onlyAdministrator public {\n    emit RemoveAdministrator(_address);\n    administrators[_address] = false;\n  }\n\n}\n",
  "sourcePath": "/home/mark/drive/development/c50/c50-token/contracts/Administrable.sol",
  "compiler": {
    "name": "solc",
    "version": "0.5.0+commit.1d4f565a.Emscripten.clang"
  },
  "schemaVersion": "3.0.1",
  "updatedAt": "2019-02-03T06:16:00.861Z",
  "devdoc": {
    "methods": {
      "isOwner()": {
        "return": "true if `msg.sender` is the owner of the contract."
      },
      "owner()": {
        "return": "the address of the owner."
      },
      "renounceOwnership()": {
        "details": "Allows the current owner to relinquish control of the contract."
      },
      "transferOwnership(address)": {
        "details": "Allows the current owner to transfer control of the contract to a newOwner.",
        "params": {
          "newOwner": "The address to transfer ownership to."
        }
      }
    },
    "title": "Administrable"
  },
  "userdoc": {
    "methods": {
      "renounceOwnership()": {
        "notice": "Renouncing to ownership will leave the contract without an owner. It will not be possible to call the functions with the `onlyOwner` modifier anymore."
      }
    }
  }
}