{
  "contractName": "C50V2",
  "abi": [
    {
      "constant": false,
      "inputs": [
        {
          "name": "_address",
          "type": "address"
        }
      ],
      "name": "removeFromWhiteList",
      "outputs": [],
      "payable": false,
      "stateMutability": "nonpayable",
      "type": "function",
      "signature": "0x01bf6648"
    },
    {
      "constant": true,
      "inputs": [],
      "name": "name",
      "outputs": [
        {
          "name": "",
          "type": "string"
        }
      ],
      "payable": false,
      "stateMutability": "view",
      "type": "function",
      "signature": "0x06fdde03"
    },
    {
      "constant": false,
      "inputs": [
        {
          "name": "spender",
          "type": "address"
        },
        {
          "name": "value",
          "type": "uint256"
        }
      ],
      "name": "approve",
      "outputs": [
        {
          "name": "",
          "type": "bool"
        }
      ],
      "payable": false,
      "stateMutability": "nonpayable",
      "type": "function",
      "signature": "0x095ea7b3"
    },
    {
      "constant": true,
      "inputs": [
        {
          "name": "_address",
          "type": "address"
        }
      ],
      "name": "isAdministrator",
      "outputs": [
        {
          "name": "",
          "type": "bool"
        }
      ],
      "payable": false,
      "stateMutability": "view",
      "type": "function",
      "signature": "0x0a2eb301"
    },
    {
      "constant": true,
      "inputs": [],
      "name": "totalSupply",
      "outputs": [
        {
          "name": "",
          "type": "uint256"
        }
      ],
      "payable": false,
      "stateMutability": "view",
      "type": "function",
      "signature": "0x18160ddd"
    },
    {
      "constant": true,
      "inputs": [
        {
          "name": "_address",
          "type": "address"
        }
      ],
      "name": "onWhitelist",
      "outputs": [
        {
          "name": "",
          "type": "bool"
        }
      ],
      "payable": false,
      "stateMutability": "view",
      "type": "function",
      "signature": "0x1d608659"
    },
    {
      "constant": false,
      "inputs": [
        {
          "name": "from",
          "type": "address"
        },
        {
          "name": "to",
          "type": "address"
        },
        {
          "name": "value",
          "type": "uint256"
        }
      ],
      "name": "transferFrom",
      "outputs": [
        {
          "name": "",
          "type": "bool"
        }
      ],
      "payable": false,
      "stateMutability": "nonpayable",
      "type": "function",
      "signature": "0x23b872dd"
    },
    {
      "constant": true,
      "inputs": [],
      "name": "rate",
      "outputs": [
        {
          "name": "",
          "type": "uint256"
        }
      ],
      "payable": false,
      "stateMutability": "view",
      "type": "function",
      "signature": "0x2c4e722e"
    },
    {
      "constant": true,
      "inputs": [],
      "name": "INITIAL_SUPPLY",
      "outputs": [
        {
          "name": "",
          "type": "uint256"
        }
      ],
      "payable": false,
      "stateMutability": "view",
      "type": "function",
      "signature": "0x2ff2e9dc"
    },
    {
      "constant": true,
      "inputs": [],
      "name": "decimals",
      "outputs": [
        {
          "name": "",
          "type": "uint8"
        }
      ],
      "payable": false,
      "stateMutability": "view",
      "type": "function",
      "signature": "0x313ce567"
    },
    {
      "constant": true,
      "inputs": [],
      "name": "MAX_SUPPLY",
      "outputs": [
        {
          "name": "",
          "type": "uint256"
        }
      ],
      "payable": false,
      "stateMutability": "view",
      "type": "function",
      "signature": "0x32cb6b0c"
    },
    {
      "constant": false,
      "inputs": [
        {
          "name": "spender",
          "type": "address"
        },
        {
          "name": "addedValue",
          "type": "uint256"
        }
      ],
      "name": "increaseAllowance",
      "outputs": [
        {
          "name": "",
          "type": "bool"
        }
      ],
      "payable": false,
      "stateMutability": "nonpayable",
      "type": "function",
      "signature": "0x39509351"
    },
    {
      "constant": false,
      "inputs": [],
      "name": "unpause",
      "outputs": [],
      "payable": false,
      "stateMutability": "nonpayable",
      "type": "function",
      "signature": "0x3f4ba83a"
    },
    {
      "constant": true,
      "inputs": [],
      "name": "weiRaised",
      "outputs": [
        {
          "name": "",
          "type": "uint256"
        }
      ],
      "payable": false,
      "stateMutability": "view",
      "type": "function",
      "signature": "0x4042b66f"
    },
    {
      "constant": false,
      "inputs": [
        {
          "name": "to",
          "type": "address"
        },
        {
          "name": "value",
          "type": "uint256"
        }
      ],
      "name": "mint",
      "outputs": [
        {
          "name": "",
          "type": "bool"
        }
      ],
      "payable": false,
      "stateMutability": "nonpayable",
      "type": "function",
      "signature": "0x40c10f19"
    },
    {
      "constant": true,
      "inputs": [
        {
          "name": "account",
          "type": "address"
        }
      ],
      "name": "isPauser",
      "outputs": [
        {
          "name": "",
          "type": "bool"
        }
      ],
      "payable": false,
      "stateMutability": "view",
      "type": "function",
      "signature": "0x46fbf68e"
    },
    {
      "constant": false,
      "inputs": [
        {
          "name": "_address",
          "type": "address"
        }
      ],
      "name": "addToWhiteList",
      "outputs": [],
      "payable": false,
      "stateMutability": "nonpayable",
      "type": "function",
      "signature": "0x47ee0394"
    },
    {
      "constant": true,
      "inputs": [],
      "name": "wallet",
      "outputs": [
        {
          "name": "",
          "type": "address"
        }
      ],
      "payable": false,
      "stateMutability": "view",
      "type": "function",
      "signature": "0x521eb273"
    },
    {
      "constant": true,
      "inputs": [],
      "name": "paused",
      "outputs": [
        {
          "name": "",
          "type": "bool"
        }
      ],
      "payable": false,
      "stateMutability": "view",
      "type": "function",
      "signature": "0x5c975abb"
    },
    {
      "constant": false,
      "inputs": [
        {
          "name": "_address",
          "type": "address"
        }
      ],
      "name": "removeAdministrator",
      "outputs": [],
      "payable": false,
      "stateMutability": "nonpayable",
      "type": "function",
      "signature": "0x68fa8134"
    },
    {
      "constant": false,
      "inputs": [],
      "name": "renouncePauser",
      "outputs": [],
      "payable": false,
      "stateMutability": "nonpayable",
      "type": "function",
      "signature": "0x6ef8d66d"
    },
    {
      "constant": true,
      "inputs": [
        {
          "name": "owner",
          "type": "address"
        }
      ],
      "name": "balanceOf",
      "outputs": [
        {
          "name": "",
          "type": "uint256"
        }
      ],
      "payable": false,
      "stateMutability": "view",
      "type": "function",
      "signature": "0x70a08231"
    },
    {
      "constant": false,
      "inputs": [],
      "name": "renounceOwnership",
      "outputs": [],
      "payable": false,
      "stateMutability": "nonpayable",
      "type": "function",
      "signature": "0x715018a6"
    },
    {
      "constant": true,
      "inputs": [
        {
          "name": "",
          "type": "address"
        }
      ],
      "name": "administrators",
      "outputs": [
        {
          "name": "",
          "type": "bool"
        }
      ],
      "payable": false,
      "stateMutability": "view",
      "type": "function",
      "signature": "0x76be1585"
    },
    {
      "constant": false,
      "inputs": [
        {
          "name": "account",
          "type": "address"
        }
      ],
      "name": "addPauser",
      "outputs": [],
      "payable": false,
      "stateMutability": "nonpayable",
      "type": "function",
      "signature": "0x82dc1ec4"
    },
    {
      "constant": false,
      "inputs": [],
      "name": "pause",
      "outputs": [],
      "payable": false,
      "stateMutability": "nonpayable",
      "type": "function",
      "signature": "0x8456cb59"
    },
    {
      "constant": true,
      "inputs": [],
      "name": "owner",
      "outputs": [
        {
          "name": "",
          "type": "address"
        }
      ],
      "payable": false,
      "stateMutability": "view",
      "type": "function",
      "signature": "0x8da5cb5b"
    },
    {
      "constant": true,
      "inputs": [],
      "name": "isOwner",
      "outputs": [
        {
          "name": "",
          "type": "bool"
        }
      ],
      "payable": false,
      "stateMutability": "view",
      "type": "function",
      "signature": "0x8f32d59b"
    },
    {
      "constant": true,
      "inputs": [],
      "name": "symbol",
      "outputs": [
        {
          "name": "",
          "type": "string"
        }
      ],
      "payable": false,
      "stateMutability": "view",
      "type": "function",
      "signature": "0x95d89b41"
    },
    {
      "constant": false,
      "inputs": [
        {
          "name": "account",
          "type": "address"
        }
      ],
      "name": "addMinter",
      "outputs": [],
      "payable": false,
      "stateMutability": "nonpayable",
      "type": "function",
      "signature": "0x983b2d56"
    },
    {
      "constant": false,
      "inputs": [],
      "name": "renounceMinter",
      "outputs": [],
      "payable": false,
      "stateMutability": "nonpayable",
      "type": "function",
      "signature": "0x98650275"
    },
    {
      "constant": true,
      "inputs": [
        {
          "name": "",
          "type": "address"
        }
      ],
      "name": "whitelist",
      "outputs": [
        {
          "name": "",
          "type": "bool"
        }
      ],
      "payable": false,
      "stateMutability": "view",
      "type": "function",
      "signature": "0x9b19251a"
    },
    {
      "constant": false,
      "inputs": [
        {
          "name": "spender",
          "type": "address"
        },
        {
          "name": "subtractedValue",
          "type": "uint256"
        }
      ],
      "name": "decreaseAllowance",
      "outputs": [
        {
          "name": "",
          "type": "bool"
        }
      ],
      "payable": false,
      "stateMutability": "nonpayable",
      "type": "function",
      "signature": "0xa457c2d7"
    },
    {
      "constant": false,
      "inputs": [
        {
          "name": "to",
          "type": "address"
        },
        {
          "name": "value",
          "type": "uint256"
        }
      ],
      "name": "transfer",
      "outputs": [
        {
          "name": "",
          "type": "bool"
        }
      ],
      "payable": false,
      "stateMutability": "nonpayable",
      "type": "function",
      "signature": "0xa9059cbb"
    },
    {
      "constant": true,
      "inputs": [
        {
          "name": "account",
          "type": "address"
        }
      ],
      "name": "isMinter",
      "outputs": [
        {
          "name": "",
          "type": "bool"
        }
      ],
      "payable": false,
      "stateMutability": "view",
      "type": "function",
      "signature": "0xaa271e1a"
    },
    {
      "constant": false,
      "inputs": [
        {
          "name": "_address",
          "type": "address"
        }
      ],
      "name": "addAdministrator",
      "outputs": [],
      "payable": false,
      "stateMutability": "nonpayable",
      "type": "function",
      "signature": "0xc9991176"
    },
    {
      "constant": true,
      "inputs": [
        {
          "name": "owner",
          "type": "address"
        },
        {
          "name": "spender",
          "type": "address"
        }
      ],
      "name": "allowance",
      "outputs": [
        {
          "name": "",
          "type": "uint256"
        }
      ],
      "payable": false,
      "stateMutability": "view",
      "type": "function",
      "signature": "0xdd62ed3e"
    },
    {
      "constant": false,
      "inputs": [
        {
          "name": "newOwner",
          "type": "address"
        }
      ],
      "name": "transferOwnership",
      "outputs": [],
      "payable": false,
      "stateMutability": "nonpayable",
      "type": "function",
      "signature": "0xf2fde38b"
    },
    {
      "inputs": [],
      "payable": false,
      "stateMutability": "nonpayable",
      "type": "constructor",
      "signature": "constructor"
    },
    {
      "payable": true,
      "stateMutability": "payable",
      "type": "fallback"
    },
    {
      "anonymous": false,
      "inputs": [
        {
          "indexed": true,
          "name": "purchaser",
          "type": "address"
        },
        {
          "indexed": true,
          "name": "beneficiary",
          "type": "address"
        },
        {
          "indexed": false,
          "name": "value",
          "type": "uint256"
        },
        {
          "indexed": false,
          "name": "amount",
          "type": "uint256"
        }
      ],
      "name": "TokenPurchase",
      "type": "event",
      "signature": "0x623b3804fa71d67900d064613da8f94b9617215ee90799290593e1745087ad18"
    },
    {
      "anonymous": false,
      "inputs": [
        {
          "indexed": false,
          "name": "wallet",
          "type": "address"
        }
      ],
      "name": "SetWallet",
      "type": "event",
      "signature": "0xe80d9383fb35934b174e9a5986b6ec524e533eae802ba534282f7b0c5fdd42cc"
    },
    {
      "anonymous": false,
      "inputs": [
        {
          "indexed": true,
          "name": "rate",
          "type": "uint256"
        }
      ],
      "name": "SetRate",
      "type": "event",
      "signature": "0x2640b4015d3473fd09bf2b30939e17deb4068cdacf3892136e737e166ceb3210"
    },
    {
      "anonymous": false,
      "inputs": [
        {
          "indexed": false,
          "name": "investor",
          "type": "address"
        }
      ],
      "name": "AddToWhiteList",
      "type": "event",
      "signature": "0x16220188fd357ae3d9cf432f984d1ea5c73787b829a3e72a4b807e8c0ebf5b0c"
    },
    {
      "anonymous": false,
      "inputs": [
        {
          "indexed": false,
          "name": "investor",
          "type": "address"
        }
      ],
      "name": "RemoveFromWhiteList",
      "type": "event",
      "signature": "0x80f4d7be9d601c8487132194fd218772956b9b20b704060810edd362c193220c"
    },
    {
      "anonymous": false,
      "inputs": [
        {
          "indexed": false,
          "name": "administrator",
          "type": "address"
        }
      ],
      "name": "AddAdministrator",
      "type": "event",
      "signature": "0x6e5eedde7d0d690d55dea362660be04ef1eb36252e48817545afb1ae6b245a40"
    },
    {
      "anonymous": false,
      "inputs": [
        {
          "indexed": false,
          "name": "administrator",
          "type": "address"
        }
      ],
      "name": "RemoveAdministrator",
      "type": "event",
      "signature": "0x5e40a439a19faa971f5d14cf300dcd7ee0d236808b9a988c9b4ca89cb833e961"
    },
    {
      "anonymous": false,
      "inputs": [
        {
          "indexed": true,
          "name": "previousOwner",
          "type": "address"
        },
        {
          "indexed": true,
          "name": "newOwner",
          "type": "address"
        }
      ],
      "name": "OwnershipTransferred",
      "type": "event",
      "signature": "0x8be0079c531659141344cd1fd0a4f28419497f9722a3daafe3b4186f6b6457e0"
    },
    {
      "anonymous": false,
      "inputs": [
        {
          "indexed": false,
          "name": "account",
          "type": "address"
        }
      ],
      "name": "Paused",
      "type": "event",
      "signature": "0x62e78cea01bee320cd4e420270b5ea74000d11b0c9f74754ebdbfc544b05a258"
    },
    {
      "anonymous": false,
      "inputs": [
        {
          "indexed": false,
          "name": "account",
          "type": "address"
        }
      ],
      "name": "Unpaused",
      "type": "event",
      "signature": "0x5db9ee0a495bf2e6ff9c91a7834c1ba4fdd244a5e8aa4e537bd38aeae4b073aa"
    },
    {
      "anonymous": false,
      "inputs": [
        {
          "indexed": true,
          "name": "account",
          "type": "address"
        }
      ],
      "name": "PauserAdded",
      "type": "event",
      "signature": "0x6719d08c1888103bea251a4ed56406bd0c3e69723c8a1686e017e7bbe159b6f8"
    },
    {
      "anonymous": false,
      "inputs": [
        {
          "indexed": true,
          "name": "account",
          "type": "address"
        }
      ],
      "name": "PauserRemoved",
      "type": "event",
      "signature": "0xcd265ebaf09df2871cc7bd4133404a235ba12eff2041bb89d9c714a2621c7c7e"
    },
    {
      "anonymous": false,
      "inputs": [
        {
          "indexed": true,
          "name": "account",
          "type": "address"
        }
      ],
      "name": "MinterAdded",
      "type": "event",
      "signature": "0x6ae172837ea30b801fbfcdd4108aa1d5bf8ff775444fd70256b44e6bf3dfc3f6"
    },
    {
      "anonymous": false,
      "inputs": [
        {
          "indexed": true,
          "name": "account",
          "type": "address"
        }
      ],
      "name": "MinterRemoved",
      "type": "event",
      "signature": "0xe94479a9f7e1952cc78f2d6baab678adc1b772d936c6583def489e524cb66692"
    },
    {
      "anonymous": false,
      "inputs": [
        {
          "indexed": true,
          "name": "from",
          "type": "address"
        },
        {
          "indexed": true,
          "name": "to",
          "type": "address"
        },
        {
          "indexed": false,
          "name": "value",
          "type": "uint256"
        }
      ],
      "name": "Transfer",
      "type": "event",
      "signature": "0xddf252ad1be2c89b69c2b068fc378daa952ba7f163c4a11628f55a4df523b3ef"
    },
    {
      "anonymous": false,
      "inputs": [
        {
          "indexed": true,
          "name": "owner",
          "type": "address"
        },
        {
          "indexed": true,
          "name": "spender",
          "type": "address"
        },
        {
          "indexed": false,
          "name": "value",
          "type": "uint256"
        }
      ],
      "name": "Approval",
      "type": "event",
      "signature": "0x8c5be1e5ebec7d5bd14f71427d1e84f3dd0314c0f7b2291e5b200ac8c7c3b925"
    },
    {
      "constant": false,
      "inputs": [
        {
          "name": "_beneficiary",
          "type": "address"
        }
      ],
      "name": "buyTokens",
      "outputs": [],
      "payable": true,
      "stateMutability": "payable",
      "type": "function",
      "signature": "0xec8ac4d8"
    },
    {
      "constant": false,
      "inputs": [
        {
          "name": "_wallet",
          "type": "address"
        }
      ],
      "name": "setWallet",
      "outputs": [],
      "payable": false,
      "stateMutability": "nonpayable",
      "type": "function",
      "signature": "0xdeaa59df"
    },
    {
      "constant": false,
      "inputs": [
        {
          "name": "_rate",
          "type": "uint256"
        }
      ],
      "name": "setRate",
      "outputs": [],
      "payable": false,
      "stateMutability": "nonpayable",
      "type": "function",
      "signature": "0x34fcf437"
    }
  ],
  "bytecode": "0x60c0604052601760808190527f43727970746f63757272656e637920353020496e64657800000000000000000060a09081526200004091600891906200036e565b506040805180820190915260038082527f4335300000000000000000000000000000000000000000000000000000000000602090920191825262000087916009916200036e565b50600a805460ff19166012179055348015620000a257600080fd5b50620000b7336401000000006200015e810204565b620000cb33640100000000620001b0810204565b60058054600160a860020a0319166101003381029190911791829055604051600160a060020a039190920416906000907f8be0079c531659141344cd1fd0a4f28419497f9722a3daafe3b4186f6b6457e0908290a362000140336a084595161401484a00000064010000000062000202810204565b6101f4600b55600c8054600160a060020a0319163317905562000413565b62000179600382640100000000620017db620002c182021704565b604051600160a060020a038216907f6ae172837ea30b801fbfcdd4108aa1d5bf8ff775444fd70256b44e6bf3dfc3f690600090a250565b620001cb600482640100000000620017db620002c182021704565b604051600160a060020a038216907f6719d08c1888103bea251a4ed56406bd0c3e69723c8a1686e017e7bbe159b6f890600090a250565b600160a060020a03821615156200021857600080fd5b600254620002359082640100000000620014116200031c82021704565b600255600160a060020a0382166000908152602081905260409020546200026b9082640100000000620014116200031c82021704565b600160a060020a0383166000818152602081815260408083209490945583518581529351929391927fddf252ad1be2c89b69c2b068fc378daa952ba7f163c4a11628f55a4df523b3ef9281900390910190a35050565b600160a060020a0381161515620002d757600080fd5b620002ec828264010000000062000336810204565b15620002f757600080fd5b600160a060020a0316600090815260209190915260409020805460ff19166001179055565b6000828201838110156200032f57600080fd5b9392505050565b6000600160a060020a03821615156200034e57600080fd5b50600160a060020a03166000908152602091909152604090205460ff1690565b828054600181600116156101000203166002900490600052602060002090601f016020900481019282601f10620003b157805160ff1916838001178555620003e1565b82800160010185558215620003e1579182015b82811115620003e1578251825591602001919060010190620003c4565b50620003ef929150620003f3565b5090565b6200041091905b80821115620003ef5760008155600101620003fa565b90565b61185580620004236000396000f3fe6080604052600436106101f85763ffffffff7c010000000000000000000000000000000000000000000000000000000060003504166301bf6648811461020357806306fdde0314610236578063095ea7b3146102c05780630a2eb3011461030d57806318160ddd146103405780631d6086591461036757806323b872dd1461039a5780632c4e722e146103dd5780632ff2e9dc146103f2578063313ce5671461040757806332cb6b0c1461043257806334fcf4371461044757806339509351146104715780633f4ba83a146104aa5780634042b66f146104bf57806340c10f19146104d457806346fbf68e1461050d57806347ee039414610540578063521eb273146105735780635c975abb146105a457806368fa8134146105b95780636ef8d66d146105ec57806370a0823114610601578063715018a61461063457806376be15851461064957806382dc1ec41461067c5780638456cb59146106af5780638da5cb5b146106c45780638f32d59b146106d957806395d89b41146106ee578063983b2d561461070357806398650275146107365780639b19251a1461074b578063a457c2d71461077e578063a9059cbb146107b7578063aa271e1a146107f0578063c999117614610823578063dd62ed3e14610856578063deaa59df14610891578063ec8ac4d8146108c4578063f2fde38b146108ea575b6102013361091d565b005b34801561020f57600080fd5b506102016004803603602081101561022657600080fd5b5035600160a060020a0316610a33565b34801561024257600080fd5b5061024b610ac6565b6040805160208082528351818301528351919283929083019185019080838360005b8381101561028557818101518382015260200161026d565b50505050905090810190601f1680156102b25780820380516001836020036101000a031916815260200191505b509250505060405180910390f35b3480156102cc57600080fd5b506102f9600480360360408110156102e357600080fd5b50600160a060020a038135169060200135610b54565b604080519115158252519081900360200190f35b34801561031957600080fd5b506102f96004803603602081101561033057600080fd5b5035600160a060020a0316610bd3565b34801561034c57600080fd5b50610355610bf1565b60408051918252519081900360200190f35b34801561037357600080fd5b506102f96004803603602081101561038a57600080fd5b5035600160a060020a0316610bf7565b3480156103a657600080fd5b506102f9600480360360608110156103bd57600080fd5b50600160a060020a03813581169160208101359091169060400135610c15565b3480156103e957600080fd5b50610355610cde565b3480156103fe57600080fd5b50610355610ce4565b34801561041357600080fd5b5061041c610cf3565b6040805160ff9092168252519081900360200190f35b34801561043e57600080fd5b50610355610cfc565b34801561045357600080fd5b506102016004803603602081101561046a57600080fd5b5035610d0d565b34801561047d57600080fd5b506102f96004803603604081101561049457600080fd5b50600160a060020a038135169060200135610d70565b3480156104b657600080fd5b50610201610e20565b3480156104cb57600080fd5b50610355610e84565b3480156104e057600080fd5b506102f9600480360360408110156104f757600080fd5b50600160a060020a038135169060200135610e8a565b34801561051957600080fd5b506102f96004803603602081101561053057600080fd5b5035600160a060020a0316610eb3565b34801561054c57600080fd5b506102016004803603602081101561056357600080fd5b5035600160a060020a0316610ec6565b34801561057f57600080fd5b50610588610f5c565b60408051600160a060020a039092168252519081900360200190f35b3480156105b057600080fd5b506102f9610f6b565b3480156105c557600080fd5b50610201600480360360208110156105dc57600080fd5b5035600160a060020a0316610f74565b3480156105f857600080fd5b50610201611007565b34801561060d57600080fd5b506103556004803603602081101561062457600080fd5b5035600160a060020a0316611012565b34801561064057600080fd5b5061020161102d565b34801561065557600080fd5b506102f96004803603602081101561066c57600080fd5b5035600160a060020a031661109d565b34801561068857600080fd5b506102016004803603602081101561069f57600080fd5b5035600160a060020a03166110b2565b3480156106bb57600080fd5b506102016110d2565b3480156106d057600080fd5b50610588611138565b3480156106e557600080fd5b506102f961114c565b3480156106fa57600080fd5b5061024b611162565b34801561070f57600080fd5b506102016004803603602081101561072657600080fd5b5035600160a060020a03166111bd565b34801561074257600080fd5b506102016111da565b34801561075757600080fd5b506102f96004803603602081101561076e57600080fd5b5035600160a060020a03166111e3565b34801561078a57600080fd5b506102f9600480360360408110156107a157600080fd5b50600160a060020a0381351690602001356111f8565b3480156107c357600080fd5b506102f9600480360360408110156107da57600080fd5b50600160a060020a038135169060200135611243565b3480156107fc57600080fd5b506102f96004803603602081101561081357600080fd5b5035600160a060020a0316611250565b34801561082f57600080fd5b506102016004803603602081101561084657600080fd5b5035600160a060020a0316611263565b34801561086257600080fd5b506103556004803603604081101561087957600080fd5b50600160a060020a03813581169160200135166112f9565b34801561089d57600080fd5b50610201600480360360208110156108b457600080fd5b5035600160a060020a0316611324565b610201600480360360208110156108da57600080fd5b5035600160a060020a031661091d565b3480156108f657600080fd5b506102016004803603602081101561090d57600080fd5b5035600160a060020a03166113c3565b60055460ff161561092d57600080fd5b34600160a060020a038216151561094357600080fd5b6000811161095057600080fd5b61095982610bf7565b151561096457600080fd5b600061097b600b54836113df90919063ffffffff16565b90506c0327cb2734119d3b7a900000006109a382610997610bf1565b9063ffffffff61141116565b11156109ae57600080fd5b6109b88382611423565b600d546109cb908363ffffffff61141116565b600d5560408051838152602081018390528151600160a060020a0386169233927f623b3804fa71d67900d064613da8f94b9617215ee90799290593e1745087ad18929081900390910190a3600c54610a2e908490600160a060020a0316846114cd565b505050565b610a3b611138565b600160a060020a031633600160a060020a03161480610a5e5750610a5e33610bd3565b1515610a6957600080fd5b60408051600160a060020a038316815290517f80f4d7be9d601c8487132194fd218772956b9b20b704060810edd362c193220c9181900360200190a1600160a060020a03166000908152600760205260409020805460ff19169055565b6008805460408051602060026001851615610100026000190190941693909304601f81018490048402820184019092528181529291830182828015610b4c5780601f10610b2157610100808354040283529160200191610b4c565b820191906000526020600020905b815481529060010190602001808311610b2f57829003601f168201915b505050505081565b6000600160a060020a0383161515610b6b57600080fd5b336000818152600160209081526040808320600160a060020a03881680855290835292819020869055805186815290519293927f8c5be1e5ebec7d5bd14f71427d1e84f3dd0314c0f7b2291e5b200ac8c7c3b925929181900390910190a35060015b92915050565b600160a060020a031660009081526006602052604090205460ff1690565b60025490565b600160a060020a031660009081526007602052604090205460ff1690565b600160a060020a0383166000908152600160209081526040808320338452909152812054610c49908363ffffffff61159a16565b600160a060020a0385166000908152600160209081526040808320338452909152902055610c788484846114cd565b600160a060020a0384166000818152600160209081526040808320338085529083529281902054815190815290519293927f8c5be1e5ebec7d5bd14f71427d1e84f3dd0314c0f7b2291e5b200ac8c7c3b925929181900390910190a35060019392505050565b600b5481565b6a084595161401484a00000081565b600a5460ff1681565b6c0327cb2734119d3b7a9000000081565b610d1561114c565b1515610d2057600080fd5b60055460ff1615610d3057600080fd5b60008111610d3d57600080fd5b600b81905560405181907f2640b4015d3473fd09bf2b30939e17deb4068cdacf3892136e737e166ceb321090600090a250565b6000600160a060020a0383161515610d8757600080fd5b336000908152600160209081526040808320600160a060020a0387168452909152902054610dbb908363ffffffff61141116565b336000818152600160209081526040808320600160a060020a0389168085529083529281902085905580519485525191937f8c5be1e5ebec7d5bd14f71427d1e84f3dd0314c0f7b2291e5b200ac8c7c3b925929081900390910190a350600192915050565b610e2933610eb3565b1515610e3457600080fd5b60055460ff161515610e4557600080fd5b6005805460ff191690556040805133815290517f5db9ee0a495bf2e6ff9c91a7834c1ba4fdd244a5e8aa4e537bd38aeae4b073aa9181900360200190a1565b600d5481565b6000610e9533611250565b1515610ea057600080fd5b610eaa8383611423565b50600192915050565b6000610bcd60048363ffffffff6115af16565b610ece611138565b600160a060020a031633600160a060020a03161480610ef15750610ef133610bd3565b1515610efc57600080fd5b60408051600160a060020a038316815290517f16220188fd357ae3d9cf432f984d1ea5c73787b829a3e72a4b807e8c0ebf5b0c9181900360200190a1600160a060020a03166000908152600760205260409020805460ff19166001179055565b600c54600160a060020a031681565b60055460ff1690565b610f7c611138565b600160a060020a031633600160a060020a03161480610f9f5750610f9f33610bd3565b1515610faa57600080fd5b60408051600160a060020a038316815290517f5e40a439a19faa971f5d14cf300dcd7ee0d236808b9a988c9b4ca89cb833e9619181900360200190a1600160a060020a03166000908152600660205260409020805460ff19169055565b611010336115e6565b565b600160a060020a031660009081526020819052604090205490565b61103561114c565b151561104057600080fd5b6005546040516000916101009004600160a060020a0316907f8be0079c531659141344cd1fd0a4f28419497f9722a3daafe3b4186f6b6457e0908390a36005805474ffffffffffffffffffffffffffffffffffffffff0019169055565b60066020526000908152604090205460ff1681565b6110bb33610eb3565b15156110c657600080fd5b6110cf8161162e565b50565b6110db33610eb3565b15156110e657600080fd5b60055460ff16156110f657600080fd5b6005805460ff191660011790556040805133815290517f62e78cea01bee320cd4e420270b5ea74000d11b0c9f74754ebdbfc544b05a2589181900360200190a1565b6005546101009004600160a060020a031690565b6005546101009004600160a060020a0316331490565b6009805460408051602060026001851615610100026000190190941693909304601f81018490048402820184019092528181529291830182828015610b4c5780601f10610b2157610100808354040283529160200191610b4c565b6111c633611250565b15156111d157600080fd5b6110cf81611676565b611010336116be565b60076020526000908152604090205460ff1681565b6000600160a060020a038316151561120f57600080fd5b336000908152600160209081526040808320600160a060020a0387168452909152902054610dbb908363ffffffff61159a16565b6000610eaa3384846114cd565b6000610bcd60038363ffffffff6115af16565b61126b611138565b600160a060020a031633600160a060020a0316148061128e575061128e33610bd3565b151561129957600080fd5b60408051600160a060020a038316815290517f6e5eedde7d0d690d55dea362660be04ef1eb36252e48817545afb1ae6b245a409181900360200190a1600160a060020a03166000908152600660205260409020805460ff19166001179055565b600160a060020a03918216600090815260016020908152604080832093909416825291909152205490565b61132c61114c565b151561133757600080fd5b60055460ff161561134757600080fd5b600160a060020a038116151561135c57600080fd5b600c805473ffffffffffffffffffffffffffffffffffffffff1916600160a060020a03838116919091179182905560408051929091168252517fe80d9383fb35934b174e9a5986b6ec524e533eae802ba534282f7b0c5fdd42cc916020908290030190a150565b6113cb61114c565b15156113d657600080fd5b6110cf81611706565b60008215156113f057506000610bcd565b8282028284828115156113ff57fe5b041461140a57600080fd5b9392505050565b60008282018381101561140a57600080fd5b600160a060020a038216151561143857600080fd5b60025461144b908263ffffffff61141116565b600255600160a060020a038216600090815260208190526040902054611477908263ffffffff61141116565b600160a060020a0383166000818152602081815260408083209490945583518581529351929391927fddf252ad1be2c89b69c2b068fc378daa952ba7f163c4a11628f55a4df523b3ef9281900390910190a35050565b600160a060020a03821615156114e257600080fd5b600160a060020a03831660009081526020819052604090205461150b908263ffffffff61159a16565b600160a060020a038085166000908152602081905260408082209390935590841681522054611540908263ffffffff61141116565b600160a060020a038084166000818152602081815260409182902094909455805185815290519193928716927fddf252ad1be2c89b69c2b068fc378daa952ba7f163c4a11628f55a4df523b3ef92918290030190a3505050565b6000828211156115a957600080fd5b50900390565b6000600160a060020a03821615156115c657600080fd5b50600160a060020a03166000908152602091909152604090205460ff1690565b6115f760048263ffffffff61178f16565b604051600160a060020a038216907fcd265ebaf09df2871cc7bd4133404a235ba12eff2041bb89d9c714a2621c7c7e90600090a250565b61163f60048263ffffffff6117db16565b604051600160a060020a038216907f6719d08c1888103bea251a4ed56406bd0c3e69723c8a1686e017e7bbe159b6f890600090a250565b61168760038263ffffffff6117db16565b604051600160a060020a038216907f6ae172837ea30b801fbfcdd4108aa1d5bf8ff775444fd70256b44e6bf3dfc3f690600090a250565b6116cf60038263ffffffff61178f16565b604051600160a060020a038216907fe94479a9f7e1952cc78f2d6baab678adc1b772d936c6583def489e524cb6669290600090a250565b600160a060020a038116151561171b57600080fd5b600554604051600160a060020a0380841692610100900416907f8be0079c531659141344cd1fd0a4f28419497f9722a3daafe3b4186f6b6457e090600090a360058054600160a060020a039092166101000274ffffffffffffffffffffffffffffffffffffffff0019909216919091179055565b600160a060020a03811615156117a457600080fd5b6117ae82826115af565b15156117b957600080fd5b600160a060020a0316600090815260209190915260409020805460ff19169055565b600160a060020a03811615156117f057600080fd5b6117fa82826115af565b1561180457600080fd5b600160a060020a0316600090815260209190915260409020805460ff1916600117905556fea165627a7a72305820853fa3b954fe8464e8a61c7826242d8fe727ca8d21c2e5399fb26c1b524c48ff0029",
  "source": "pragma solidity ^0.5.0;\nimport 'openzeppelin-solidity/contracts/token/ERC20/ERC20Mintable.sol';\nimport 'openzeppelin-solidity/contracts/lifecycle/Pausable.sol';\nimport './WhiteList.sol';\n\n\ncontract C50V2 is ERC20Mintable, Pausable, WhiteList {\n    string public name = \"Cryptocurrency 50 Index\";\n    string public symbol = \"C50\";\n    uint8 public decimals = 18;\n    uint256 public constant INITIAL_SUPPLY = 10000000 * (10 ** uint256(18));\n    uint256 public constant MAX_SUPPLY = 250000000000 * (10 ** uint256(18));\n    uint256 public rate; // How many token units a buyer gets per wei\n    address public wallet;  // Address where funds are collected\n    uint256 public weiRaised; // Amount of wei raised\n\n  /**\n   * Event for token purchase logging\n   * @param purchaser who paid for the tokens\n   * @param beneficiary who got the tokens\n   * @param value weis paid for purchase\n   * @param amount amount of tokens purchased\n   */\n  event TokenPurchase(\n    address indexed purchaser,\n    address indexed beneficiary,\n    uint256 value,\n    uint256 amount\n  );\n\n  event SetWallet(address wallet);\n  event SetRate(uint256 indexed rate);\n\n  constructor() public {\n    _mint(msg.sender, INITIAL_SUPPLY);\n    rate = 500;\n    wallet = msg.sender;\n  }\n\n  //Fallback function\n  function () external payable {\n    buyTokens(msg.sender);\n  }\n\n  function buyTokens(address _beneficiary) whenNotPaused public payable {\n    uint256 _weiAmount = msg.value;\n    require(_beneficiary != address(0));\n    require(_weiAmount > 0);\n    require(onWhitelist(_beneficiary));\n\n    // calculate token amount to be created\n    uint256 _amount = _weiAmount.mul(rate);\n\n    // update state\n\n    require(totalSupply().add(_amount) <= MAX_SUPPLY);\n    _mint(_beneficiary, _amount);\n    weiRaised = weiRaised.add(_weiAmount);\n\n    emit TokenPurchase(msg.sender, _beneficiary, _weiAmount, _amount);\n    _transfer(_beneficiary, wallet, _weiAmount);\n  }\n\n\n  function setWallet(address _wallet) onlyOwner whenNotPaused public {\n    require(_wallet != address(0));\n    wallet = _wallet;\n    emit SetWallet(wallet);\n  }\n\n\n  function setRate(uint256 _rate) onlyOwner whenNotPaused public {\n    require(_rate > 0);\n    rate = _rate;\n    emit SetRate(rate);\n  }\n}",
  "sourcePath": "/home/mark/drive/development/c50/c50-token/contracts/C50V2.sol",
  "compiler": {
    "name": "solc",
    "version": "0.5.0+commit.1d4f565a.Emscripten.clang"
  },
  "schemaVersion": "3.0.1",
  "updatedAt": "2019-02-03T06:48:20.542Z",
  "devdoc": {
    "methods": {
      "allowance(address,address)": {
        "details": "Function to check the amount of tokens that an owner allowed to a spender.",
        "params": {
          "owner": "address The address which owns the funds.",
          "spender": "address The address which will spend the funds."
        },
        "return": "A uint256 specifying the amount of tokens still available for the spender."
      },
      "approve(address,uint256)": {
        "details": "Approve the passed address to spend the specified amount of tokens on behalf of msg.sender. Beware that changing an allowance with this method brings the risk that someone may use both the old and the new allowance by unfortunate transaction ordering. One possible solution to mitigate this race condition is to first reduce the spender's allowance to 0 and set the desired value afterwards: https://github.com/ethereum/EIPs/issues/20#issuecomment-263524729",
        "params": {
          "spender": "The address which will spend the funds.",
          "value": "The amount of tokens to be spent."
        }
      },
      "balanceOf(address)": {
        "details": "Gets the balance of the specified address.",
        "params": {
          "owner": "The address to query the balance of."
        },
        "return": "An uint256 representing the amount owned by the passed address."
      },
      "decreaseAllowance(address,uint256)": {
        "details": "Decrease the amount of tokens that an owner allowed to a spender. approve should be called when allowed_[_spender] == 0. To decrement allowed value is better to use this function to avoid 2 calls (and wait until the first transaction is mined) From MonolithDAO Token.sol Emits an Approval event.",
        "params": {
          "spender": "The address which will spend the funds.",
          "subtractedValue": "The amount of tokens to decrease the allowance by."
        }
      },
      "increaseAllowance(address,uint256)": {
        "details": "Increase the amount of tokens that an owner allowed to a spender. approve should be called when allowed_[_spender] == 0. To increment allowed value is better to use this function to avoid 2 calls (and wait until the first transaction is mined) From MonolithDAO Token.sol Emits an Approval event.",
        "params": {
          "addedValue": "The amount of tokens to increase the allowance by.",
          "spender": "The address which will spend the funds."
        }
      },
      "isOwner()": {
        "return": "true if `msg.sender` is the owner of the contract."
      },
      "mint(address,uint256)": {
        "details": "Function to mint tokens",
        "params": {
          "to": "The address that will receive the minted tokens.",
          "value": "The amount of tokens to mint."
        },
        "return": "A boolean that indicates if the operation was successful."
      },
      "owner()": {
        "return": "the address of the owner."
      },
      "pause()": {
        "details": "called by the owner to pause, triggers stopped state"
      },
      "paused()": {
        "return": "true if the contract is paused, false otherwise."
      },
      "renounceOwnership()": {
        "details": "Allows the current owner to relinquish control of the contract."
      },
      "totalSupply()": {
        "details": "Total number of tokens in existence"
      },
      "transfer(address,uint256)": {
        "details": "Transfer token for a specified address",
        "params": {
          "to": "The address to transfer to.",
          "value": "The amount to be transferred."
        }
      },
      "transferFrom(address,address,uint256)": {
        "details": "Transfer tokens from one address to another. Note that while this function emits an Approval event, this is not required as per the specification, and other compliant implementations may not emit the event.",
        "params": {
          "from": "address The address which you want to send tokens from",
          "to": "address The address which you want to transfer to",
          "value": "uint256 the amount of tokens to be transferred"
        }
      },
      "transferOwnership(address)": {
        "details": "Allows the current owner to transfer control of the contract to a newOwner.",
        "params": {
          "newOwner": "The address to transfer ownership to."
        }
      },
      "unpause()": {
        "details": "called by the owner to unpause, returns to normal state"
      }
    }
  },
  "userdoc": {
    "methods": {
      "renounceOwnership()": {
        "notice": "Renouncing to ownership will leave the contract without an owner. It will not be possible to call the functions with the `onlyOwner` modifier anymore."
      }
    }
  }
}