{
  "contractName": "C50V2",
  "abi": [
    {
      "constant": false,
      "inputs": [
        {
          "name": "_address",
          "type": "address"
        }
      ],
      "name": "removeFromWhiteList",
      "outputs": [],
      "payable": false,
      "stateMutability": "nonpayable",
      "type": "function",
      "signature": "0x01bf6648"
    },
    {
      "constant": true,
      "inputs": [],
      "name": "name",
      "outputs": [
        {
          "name": "",
          "type": "string"
        }
      ],
      "payable": false,
      "stateMutability": "view",
      "type": "function",
      "signature": "0x06fdde03"
    },
    {
      "constant": false,
      "inputs": [
        {
          "name": "spender",
          "type": "address"
        },
        {
          "name": "value",
          "type": "uint256"
        }
      ],
      "name": "approve",
      "outputs": [
        {
          "name": "",
          "type": "bool"
        }
      ],
      "payable": false,
      "stateMutability": "nonpayable",
      "type": "function",
      "signature": "0x095ea7b3"
    },
    {
      "constant": true,
      "inputs": [
        {
          "name": "_address",
          "type": "address"
        }
      ],
      "name": "isAdministrator",
      "outputs": [
        {
          "name": "",
          "type": "bool"
        }
      ],
      "payable": false,
      "stateMutability": "view",
      "type": "function",
      "signature": "0x0a2eb301"
    },
    {
      "constant": true,
      "inputs": [],
      "name": "totalSupply",
      "outputs": [
        {
          "name": "",
          "type": "uint256"
        }
      ],
      "payable": false,
      "stateMutability": "view",
      "type": "function",
      "signature": "0x18160ddd"
    },
    {
      "constant": true,
      "inputs": [
        {
          "name": "_address",
          "type": "address"
        }
      ],
      "name": "onWhitelist",
      "outputs": [
        {
          "name": "",
          "type": "bool"
        }
      ],
      "payable": false,
      "stateMutability": "view",
      "type": "function",
      "signature": "0x1d608659"
    },
    {
      "constant": false,
      "inputs": [
        {
          "name": "from",
          "type": "address"
        },
        {
          "name": "to",
          "type": "address"
        },
        {
          "name": "value",
          "type": "uint256"
        }
      ],
      "name": "transferFrom",
      "outputs": [
        {
          "name": "",
          "type": "bool"
        }
      ],
      "payable": false,
      "stateMutability": "nonpayable",
      "type": "function",
      "signature": "0x23b872dd"
    },
    {
      "constant": true,
      "inputs": [],
      "name": "rate",
      "outputs": [
        {
          "name": "",
          "type": "uint256"
        }
      ],
      "payable": false,
      "stateMutability": "view",
      "type": "function",
      "signature": "0x2c4e722e"
    },
    {
      "constant": true,
      "inputs": [],
      "name": "INITIAL_SUPPLY",
      "outputs": [
        {
          "name": "",
          "type": "uint256"
        }
      ],
      "payable": false,
      "stateMutability": "view",
      "type": "function",
      "signature": "0x2ff2e9dc"
    },
    {
      "constant": true,
      "inputs": [],
      "name": "decimals",
      "outputs": [
        {
          "name": "",
          "type": "uint8"
        }
      ],
      "payable": false,
      "stateMutability": "view",
      "type": "function",
      "signature": "0x313ce567"
    },
    {
      "constant": true,
      "inputs": [],
      "name": "MAX_SUPPLY",
      "outputs": [
        {
          "name": "",
          "type": "uint256"
        }
      ],
      "payable": false,
      "stateMutability": "view",
      "type": "function",
      "signature": "0x32cb6b0c"
    },
    {
      "constant": false,
      "inputs": [
        {
          "name": "spender",
          "type": "address"
        },
        {
          "name": "addedValue",
          "type": "uint256"
        }
      ],
      "name": "increaseAllowance",
      "outputs": [
        {
          "name": "",
          "type": "bool"
        }
      ],
      "payable": false,
      "stateMutability": "nonpayable",
      "type": "function",
      "signature": "0x39509351"
    },
    {
      "constant": false,
      "inputs": [],
      "name": "unpause",
      "outputs": [],
      "payable": false,
      "stateMutability": "nonpayable",
      "type": "function",
      "signature": "0x3f4ba83a"
    },
    {
      "constant": true,
      "inputs": [],
      "name": "weiRaised",
      "outputs": [
        {
          "name": "",
          "type": "uint256"
        }
      ],
      "payable": false,
      "stateMutability": "view",
      "type": "function",
      "signature": "0x4042b66f"
    },
    {
      "constant": false,
      "inputs": [
        {
          "name": "to",
          "type": "address"
        },
        {
          "name": "value",
          "type": "uint256"
        }
      ],
      "name": "mint",
      "outputs": [
        {
          "name": "",
          "type": "bool"
        }
      ],
      "payable": false,
      "stateMutability": "nonpayable",
      "type": "function",
      "signature": "0x40c10f19"
    },
    {
      "constant": true,
      "inputs": [
        {
          "name": "account",
          "type": "address"
        }
      ],
      "name": "isPauser",
      "outputs": [
        {
          "name": "",
          "type": "bool"
        }
      ],
      "payable": false,
      "stateMutability": "view",
      "type": "function",
      "signature": "0x46fbf68e"
    },
    {
      "constant": false,
      "inputs": [
        {
          "name": "_address",
          "type": "address"
        }
      ],
      "name": "addToWhiteList",
      "outputs": [],
      "payable": false,
      "stateMutability": "nonpayable",
      "type": "function",
      "signature": "0x47ee0394"
    },
    {
      "constant": true,
      "inputs": [],
      "name": "paused",
      "outputs": [
        {
          "name": "",
          "type": "bool"
        }
      ],
      "payable": false,
      "stateMutability": "view",
      "type": "function",
      "signature": "0x5c975abb"
    },
    {
      "constant": false,
      "inputs": [
        {
          "name": "_address",
          "type": "address"
        }
      ],
      "name": "removeAdministrator",
      "outputs": [],
      "payable": false,
      "stateMutability": "nonpayable",
      "type": "function",
      "signature": "0x68fa8134"
    },
    {
      "constant": false,
      "inputs": [],
      "name": "renouncePauser",
      "outputs": [],
      "payable": false,
      "stateMutability": "nonpayable",
      "type": "function",
      "signature": "0x6ef8d66d"
    },
    {
      "constant": true,
      "inputs": [
        {
          "name": "owner",
          "type": "address"
        }
      ],
      "name": "balanceOf",
      "outputs": [
        {
          "name": "",
          "type": "uint256"
        }
      ],
      "payable": false,
      "stateMutability": "view",
      "type": "function",
      "signature": "0x70a08231"
    },
    {
      "constant": false,
      "inputs": [],
      "name": "renounceOwnership",
      "outputs": [],
      "payable": false,
      "stateMutability": "nonpayable",
      "type": "function",
      "signature": "0x715018a6"
    },
    {
      "constant": true,
      "inputs": [
        {
          "name": "",
          "type": "address"
        }
      ],
      "name": "administrators",
      "outputs": [
        {
          "name": "",
          "type": "bool"
        }
      ],
      "payable": false,
      "stateMutability": "view",
      "type": "function",
      "signature": "0x76be1585"
    },
    {
      "constant": false,
      "inputs": [
        {
          "name": "account",
          "type": "address"
        }
      ],
      "name": "addPauser",
      "outputs": [],
      "payable": false,
      "stateMutability": "nonpayable",
      "type": "function",
      "signature": "0x82dc1ec4"
    },
    {
      "constant": false,
      "inputs": [],
      "name": "pause",
      "outputs": [],
      "payable": false,
      "stateMutability": "nonpayable",
      "type": "function",
      "signature": "0x8456cb59"
    },
    {
      "constant": true,
      "inputs": [],
      "name": "owner",
      "outputs": [
        {
          "name": "",
          "type": "address"
        }
      ],
      "payable": false,
      "stateMutability": "view",
      "type": "function",
      "signature": "0x8da5cb5b"
    },
    {
      "constant": true,
      "inputs": [],
      "name": "isOwner",
      "outputs": [
        {
          "name": "",
          "type": "bool"
        }
      ],
      "payable": false,
      "stateMutability": "view",
      "type": "function",
      "signature": "0x8f32d59b"
    },
    {
      "constant": true,
      "inputs": [],
      "name": "symbol",
      "outputs": [
        {
          "name": "",
          "type": "string"
        }
      ],
      "payable": false,
      "stateMutability": "view",
      "type": "function",
      "signature": "0x95d89b41"
    },
    {
      "constant": false,
      "inputs": [
        {
          "name": "account",
          "type": "address"
        }
      ],
      "name": "addMinter",
      "outputs": [],
      "payable": false,
      "stateMutability": "nonpayable",
      "type": "function",
      "signature": "0x983b2d56"
    },
    {
      "constant": false,
      "inputs": [],
      "name": "renounceMinter",
      "outputs": [],
      "payable": false,
      "stateMutability": "nonpayable",
      "type": "function",
      "signature": "0x98650275"
    },
    {
      "constant": true,
      "inputs": [
        {
          "name": "",
          "type": "address"
        }
      ],
      "name": "whitelist",
      "outputs": [
        {
          "name": "",
          "type": "bool"
        }
      ],
      "payable": false,
      "stateMutability": "view",
      "type": "function",
      "signature": "0x9b19251a"
    },
    {
      "constant": false,
      "inputs": [
        {
          "name": "spender",
          "type": "address"
        },
        {
          "name": "subtractedValue",
          "type": "uint256"
        }
      ],
      "name": "decreaseAllowance",
      "outputs": [
        {
          "name": "",
          "type": "bool"
        }
      ],
      "payable": false,
      "stateMutability": "nonpayable",
      "type": "function",
      "signature": "0xa457c2d7"
    },
    {
      "constant": false,
      "inputs": [
        {
          "name": "to",
          "type": "address"
        },
        {
          "name": "value",
          "type": "uint256"
        }
      ],
      "name": "transfer",
      "outputs": [
        {
          "name": "",
          "type": "bool"
        }
      ],
      "payable": false,
      "stateMutability": "nonpayable",
      "type": "function",
      "signature": "0xa9059cbb"
    },
    {
      "constant": true,
      "inputs": [
        {
          "name": "account",
          "type": "address"
        }
      ],
      "name": "isMinter",
      "outputs": [
        {
          "name": "",
          "type": "bool"
        }
      ],
      "payable": false,
      "stateMutability": "view",
      "type": "function",
      "signature": "0xaa271e1a"
    },
    {
      "constant": false,
      "inputs": [
        {
          "name": "_address",
          "type": "address"
        }
      ],
      "name": "addAdministrator",
      "outputs": [],
      "payable": false,
      "stateMutability": "nonpayable",
      "type": "function",
      "signature": "0xc9991176"
    },
    {
      "constant": true,
      "inputs": [
        {
          "name": "owner",
          "type": "address"
        },
        {
          "name": "spender",
          "type": "address"
        }
      ],
      "name": "allowance",
      "outputs": [
        {
          "name": "",
          "type": "uint256"
        }
      ],
      "payable": false,
      "stateMutability": "view",
      "type": "function",
      "signature": "0xdd62ed3e"
    },
    {
      "constant": false,
      "inputs": [
        {
          "name": "newOwner",
          "type": "address"
        }
      ],
      "name": "transferOwnership",
      "outputs": [],
      "payable": false,
      "stateMutability": "nonpayable",
      "type": "function",
      "signature": "0xf2fde38b"
    },
    {
      "inputs": [],
      "payable": false,
      "stateMutability": "nonpayable",
      "type": "constructor",
      "signature": "constructor"
    },
    {
      "payable": true,
      "stateMutability": "payable",
      "type": "fallback"
    },
    {
      "anonymous": false,
      "inputs": [
        {
          "indexed": true,
          "name": "purchaser",
          "type": "address"
        },
        {
          "indexed": true,
          "name": "beneficiary",
          "type": "address"
        },
        {
          "indexed": false,
          "name": "value",
          "type": "uint256"
        },
        {
          "indexed": false,
          "name": "amount",
          "type": "uint256"
        }
      ],
      "name": "TokenPurchase",
      "type": "event",
      "signature": "0x623b3804fa71d67900d064613da8f94b9617215ee90799290593e1745087ad18"
    },
    {
      "anonymous": false,
      "inputs": [
        {
          "indexed": false,
          "name": "wallet",
          "type": "address"
        }
      ],
      "name": "SetWallet",
      "type": "event",
      "signature": "0xe80d9383fb35934b174e9a5986b6ec524e533eae802ba534282f7b0c5fdd42cc"
    },
    {
      "anonymous": false,
      "inputs": [
        {
          "indexed": true,
          "name": "rate",
          "type": "uint256"
        }
      ],
      "name": "SetRate",
      "type": "event",
      "signature": "0x2640b4015d3473fd09bf2b30939e17deb4068cdacf3892136e737e166ceb3210"
    },
    {
      "anonymous": false,
      "inputs": [
        {
          "indexed": false,
          "name": "investor",
          "type": "address"
        }
      ],
      "name": "AddToWhiteList",
      "type": "event",
      "signature": "0x16220188fd357ae3d9cf432f984d1ea5c73787b829a3e72a4b807e8c0ebf5b0c"
    },
    {
      "anonymous": false,
      "inputs": [
        {
          "indexed": false,
          "name": "investor",
          "type": "address"
        }
      ],
      "name": "RemoveFromWhiteList",
      "type": "event",
      "signature": "0x80f4d7be9d601c8487132194fd218772956b9b20b704060810edd362c193220c"
    },
    {
      "anonymous": false,
      "inputs": [
        {
          "indexed": false,
          "name": "administrator",
          "type": "address"
        }
      ],
      "name": "AddAdministrator",
      "type": "event",
      "signature": "0x6e5eedde7d0d690d55dea362660be04ef1eb36252e48817545afb1ae6b245a40"
    },
    {
      "anonymous": false,
      "inputs": [
        {
          "indexed": false,
          "name": "administrator",
          "type": "address"
        }
      ],
      "name": "RemoveAdministrator",
      "type": "event",
      "signature": "0x5e40a439a19faa971f5d14cf300dcd7ee0d236808b9a988c9b4ca89cb833e961"
    },
    {
      "anonymous": false,
      "inputs": [
        {
          "indexed": true,
          "name": "previousOwner",
          "type": "address"
        },
        {
          "indexed": true,
          "name": "newOwner",
          "type": "address"
        }
      ],
      "name": "OwnershipTransferred",
      "type": "event",
      "signature": "0x8be0079c531659141344cd1fd0a4f28419497f9722a3daafe3b4186f6b6457e0"
    },
    {
      "anonymous": false,
      "inputs": [
        {
          "indexed": false,
          "name": "account",
          "type": "address"
        }
      ],
      "name": "Paused",
      "type": "event",
      "signature": "0x62e78cea01bee320cd4e420270b5ea74000d11b0c9f74754ebdbfc544b05a258"
    },
    {
      "anonymous": false,
      "inputs": [
        {
          "indexed": false,
          "name": "account",
          "type": "address"
        }
      ],
      "name": "Unpaused",
      "type": "event",
      "signature": "0x5db9ee0a495bf2e6ff9c91a7834c1ba4fdd244a5e8aa4e537bd38aeae4b073aa"
    },
    {
      "anonymous": false,
      "inputs": [
        {
          "indexed": true,
          "name": "account",
          "type": "address"
        }
      ],
      "name": "PauserAdded",
      "type": "event",
      "signature": "0x6719d08c1888103bea251a4ed56406bd0c3e69723c8a1686e017e7bbe159b6f8"
    },
    {
      "anonymous": false,
      "inputs": [
        {
          "indexed": true,
          "name": "account",
          "type": "address"
        }
      ],
      "name": "PauserRemoved",
      "type": "event",
      "signature": "0xcd265ebaf09df2871cc7bd4133404a235ba12eff2041bb89d9c714a2621c7c7e"
    },
    {
      "anonymous": false,
      "inputs": [
        {
          "indexed": true,
          "name": "account",
          "type": "address"
        }
      ],
      "name": "MinterAdded",
      "type": "event",
      "signature": "0x6ae172837ea30b801fbfcdd4108aa1d5bf8ff775444fd70256b44e6bf3dfc3f6"
    },
    {
      "anonymous": false,
      "inputs": [
        {
          "indexed": true,
          "name": "account",
          "type": "address"
        }
      ],
      "name": "MinterRemoved",
      "type": "event",
      "signature": "0xe94479a9f7e1952cc78f2d6baab678adc1b772d936c6583def489e524cb66692"
    },
    {
      "anonymous": false,
      "inputs": [
        {
          "indexed": true,
          "name": "from",
          "type": "address"
        },
        {
          "indexed": true,
          "name": "to",
          "type": "address"
        },
        {
          "indexed": false,
          "name": "value",
          "type": "uint256"
        }
      ],
      "name": "Transfer",
      "type": "event",
      "signature": "0xddf252ad1be2c89b69c2b068fc378daa952ba7f163c4a11628f55a4df523b3ef"
    },
    {
      "anonymous": false,
      "inputs": [
        {
          "indexed": true,
          "name": "owner",
          "type": "address"
        },
        {
          "indexed": true,
          "name": "spender",
          "type": "address"
        },
        {
          "indexed": false,
          "name": "value",
          "type": "uint256"
        }
      ],
      "name": "Approval",
      "type": "event",
      "signature": "0x8c5be1e5ebec7d5bd14f71427d1e84f3dd0314c0f7b2291e5b200ac8c7c3b925"
    },
    {
      "constant": false,
      "inputs": [
        {
          "name": "_beneficiary",
          "type": "address"
        }
      ],
      "name": "buyTokens",
      "outputs": [],
      "payable": true,
      "stateMutability": "payable",
      "type": "function",
      "signature": "0xec8ac4d8"
    },
    {
      "constant": false,
      "inputs": [
        {
          "name": "_wallet",
          "type": "address"
        }
      ],
      "name": "setWallet",
      "outputs": [],
      "payable": false,
      "stateMutability": "nonpayable",
      "type": "function",
      "signature": "0xdeaa59df"
    },
    {
      "constant": false,
      "inputs": [
        {
          "name": "_rate",
          "type": "uint256"
        }
      ],
      "name": "setRate",
      "outputs": [],
      "payable": false,
      "stateMutability": "nonpayable",
      "type": "function",
      "signature": "0x34fcf437"
    }
  ],
  "bytecode": "0x60c0604052601760808190527f43727970746f63757272656e637920353020496e64657800000000000000000060a090815262000040916009919062000373565b506040805180820190915260038082527f433530000000000000000000000000000000000000000000000000000000000060209092019182526200008791600a9162000373565b50600b805460ff19166012179055348015620000a257600080fd5b50620000b73364010000000062000163810204565b620000cb33640100000000620001b5810204565b60058054600160a860020a0319166101003381029190911791829055604051600160a060020a039190920416906000907f8be0079c531659141344cd1fd0a4f28419497f9722a3daafe3b4186f6b6457e0908290a3600160085562000145336a084595161401484a00000064010000000062000207810204565b6101f4600c55600d8054600160a060020a0319163317905562000418565b6200017e600382640100000000620017e9620002c682021704565b604051600160a060020a038216907f6ae172837ea30b801fbfcdd4108aa1d5bf8ff775444fd70256b44e6bf3dfc3f690600090a250565b620001d0600482640100000000620017e9620002c682021704565b604051600160a060020a038216907f6719d08c1888103bea251a4ed56406bd0c3e69723c8a1686e017e7bbe159b6f890600090a250565b600160a060020a03821615156200021d57600080fd5b6002546200023a90826401000000006200141f6200032182021704565b600255600160a060020a0382166000908152602081905260409020546200027090826401000000006200141f6200032182021704565b600160a060020a0383166000818152602081815260408083209490945583518581529351929391927fddf252ad1be2c89b69c2b068fc378daa952ba7f163c4a11628f55a4df523b3ef9281900390910190a35050565b600160a060020a0381161515620002dc57600080fd5b620002f182826401000000006200033b810204565b15620002fc57600080fd5b600160a060020a0316600090815260209190915260409020805460ff19166001179055565b6000828201838110156200033457600080fd5b9392505050565b6000600160a060020a03821615156200035357600080fd5b50600160a060020a03166000908152602091909152604090205460ff1690565b828054600181600116156101000203166002900490600052602060002090601f016020900481019282601f10620003b657805160ff1916838001178555620003e6565b82800160010185558215620003e6579182015b82811115620003e6578251825591602001919060010190620003c9565b50620003f4929150620003f8565b5090565b6200041591905b80821115620003f45760008155600101620003ff565b90565b61186380620004286000396000f3fe6080604052600436106101ed5763ffffffff7c010000000000000000000000000000000000000000000000000000000060003504166301bf664881146101f857806306fdde031461022b578063095ea7b3146102b55780630a2eb3011461030257806318160ddd146103355780631d6086591461035c57806323b872dd1461038f5780632c4e722e146103d25780632ff2e9dc146103e7578063313ce567146103fc57806332cb6b0c1461042757806334fcf4371461043c57806339509351146104665780633f4ba83a1461049f5780634042b66f146104b457806340c10f19146104c957806346fbf68e1461050257806347ee0394146105355780635c975abb1461056857806368fa81341461057d5780636ef8d66d146105b057806370a08231146105c5578063715018a6146105f857806376be15851461060d57806382dc1ec4146106405780638456cb59146106735780638da5cb5b146106885780638f32d59b146106b957806395d89b41146106ce578063983b2d56146106e357806398650275146107165780639b19251a1461072b578063a457c2d71461075e578063a9059cbb14610797578063aa271e1a146107d0578063c999117614610803578063dd62ed3e14610836578063deaa59df14610871578063ec8ac4d8146108a4578063f2fde38b146108ca575b6101f6336108fd565b005b34801561020457600080fd5b506101f66004803603602081101561021b57600080fd5b5035600160a060020a0316610a50565b34801561023757600080fd5b50610240610ae3565b6040805160208082528351818301528351919283929083019185019080838360005b8381101561027a578181015183820152602001610262565b50505050905090810190601f1680156102a75780820380516001836020036101000a031916815260200191505b509250505060405180910390f35b3480156102c157600080fd5b506102ee600480360360408110156102d857600080fd5b50600160a060020a038135169060200135610b71565b604080519115158252519081900360200190f35b34801561030e57600080fd5b506102ee6004803603602081101561032557600080fd5b5035600160a060020a0316610bf0565b34801561034157600080fd5b5061034a610c0e565b60408051918252519081900360200190f35b34801561036857600080fd5b506102ee6004803603602081101561037f57600080fd5b5035600160a060020a0316610c14565b34801561039b57600080fd5b506102ee600480360360608110156103b257600080fd5b50600160a060020a03813581169160208101359091169060400135610c32565b3480156103de57600080fd5b5061034a610cfb565b3480156103f357600080fd5b5061034a610d01565b34801561040857600080fd5b50610411610d10565b6040805160ff9092168252519081900360200190f35b34801561043357600080fd5b5061034a610d19565b34801561044857600080fd5b506101f66004803603602081101561045f57600080fd5b5035610d2a565b34801561047257600080fd5b506102ee6004803603604081101561048957600080fd5b50600160a060020a038135169060200135610d8d565b3480156104ab57600080fd5b506101f6610e3d565b3480156104c057600080fd5b5061034a610ea1565b3480156104d557600080fd5b506102ee600480360360408110156104ec57600080fd5b50600160a060020a038135169060200135610ea7565b34801561050e57600080fd5b506102ee6004803603602081101561052557600080fd5b5035600160a060020a0316610ed0565b34801561054157600080fd5b506101f66004803603602081101561055857600080fd5b5035600160a060020a0316610ee3565b34801561057457600080fd5b506102ee610f79565b34801561058957600080fd5b506101f6600480360360208110156105a057600080fd5b5035600160a060020a0316610f82565b3480156105bc57600080fd5b506101f6611015565b3480156105d157600080fd5b5061034a600480360360208110156105e857600080fd5b5035600160a060020a0316611020565b34801561060457600080fd5b506101f661103b565b34801561061957600080fd5b506102ee6004803603602081101561063057600080fd5b5035600160a060020a03166110ab565b34801561064c57600080fd5b506101f66004803603602081101561066357600080fd5b5035600160a060020a03166110c0565b34801561067f57600080fd5b506101f66110e0565b34801561069457600080fd5b5061069d611146565b60408051600160a060020a039092168252519081900360200190f35b3480156106c557600080fd5b506102ee61115a565b3480156106da57600080fd5b50610240611170565b3480156106ef57600080fd5b506101f66004803603602081101561070657600080fd5b5035600160a060020a03166111cb565b34801561072257600080fd5b506101f66111e8565b34801561073757600080fd5b506102ee6004803603602081101561074e57600080fd5b5035600160a060020a03166111f1565b34801561076a57600080fd5b506102ee6004803603604081101561078157600080fd5b50600160a060020a038135169060200135611206565b3480156107a357600080fd5b506102ee600480360360408110156107ba57600080fd5b50600160a060020a038135169060200135611251565b3480156107dc57600080fd5b506102ee600480360360208110156107f357600080fd5b5035600160a060020a031661125e565b34801561080f57600080fd5b506101f66004803603602081101561082657600080fd5b5035600160a060020a0316611271565b34801561084257600080fd5b5061034a6004803603604081101561085957600080fd5b50600160a060020a0381358116916020013516611307565b34801561087d57600080fd5b506101f66004803603602081101561089457600080fd5b5035600160a060020a0316611332565b6101f6600480360360208110156108ba57600080fd5b5035600160a060020a03166108fd565b3480156108d657600080fd5b506101f6600480360360208110156108ed57600080fd5b5035600160a060020a03166113d1565b60055460ff161561090d57600080fd5b600880546001019081905534600160a060020a038316151561092e57600080fd5b6000811161093b57600080fd5b61094483610c14565b151561094f57600080fd5b6000610966600c54836113ed90919063ffffffff16565b90506c0327cb2734119d3b7a9000000061098e82610982610c0e565b9063ffffffff61141f16565b111561099957600080fd5b6109a38482611431565b600e546109b6908363ffffffff61141f16565b600e55600d54604051600160a060020a039091169083156108fc029084906000818181858888f193505050501580156109f3573d6000803e3d6000fd5b5060408051838152602081018390528151600160a060020a0387169233927f623b3804fa71d67900d064613da8f94b9617215ee90799290593e1745087ad18929081900390910190a350506008548114610a4c57600080fd5b5050565b610a58611146565b600160a060020a031633600160a060020a03161480610a7b5750610a7b33610bf0565b1515610a8657600080fd5b60408051600160a060020a038316815290517f80f4d7be9d601c8487132194fd218772956b9b20b704060810edd362c193220c9181900360200190a1600160a060020a03166000908152600760205260409020805460ff19169055565b6009805460408051602060026001851615610100026000190190941693909304601f81018490048402820184019092528181529291830182828015610b695780601f10610b3e57610100808354040283529160200191610b69565b820191906000526020600020905b815481529060010190602001808311610b4c57829003601f168201915b505050505081565b6000600160a060020a0383161515610b8857600080fd5b336000818152600160209081526040808320600160a060020a03881680855290835292819020869055805186815290519293927f8c5be1e5ebec7d5bd14f71427d1e84f3dd0314c0f7b2291e5b200ac8c7c3b925929181900390910190a35060015b92915050565b600160a060020a031660009081526006602052604090205460ff1690565b60025490565b600160a060020a031660009081526007602052604090205460ff1690565b600160a060020a0383166000908152600160209081526040808320338452909152812054610c66908363ffffffff6114db16565b600160a060020a0385166000908152600160209081526040808320338452909152902055610c958484846114f0565b600160a060020a0384166000818152600160209081526040808320338085529083529281902054815190815290519293927f8c5be1e5ebec7d5bd14f71427d1e84f3dd0314c0f7b2291e5b200ac8c7c3b925929181900390910190a35060019392505050565b600c5481565b6a084595161401484a00000081565b600b5460ff1681565b6c0327cb2734119d3b7a9000000081565b610d3261115a565b1515610d3d57600080fd5b60055460ff1615610d4d57600080fd5b60008111610d5a57600080fd5b600c81905560405181907f2640b4015d3473fd09bf2b30939e17deb4068cdacf3892136e737e166ceb321090600090a250565b6000600160a060020a0383161515610da457600080fd5b336000908152600160209081526040808320600160a060020a0387168452909152902054610dd8908363ffffffff61141f16565b336000818152600160209081526040808320600160a060020a0389168085529083529281902085905580519485525191937f8c5be1e5ebec7d5bd14f71427d1e84f3dd0314c0f7b2291e5b200ac8c7c3b925929081900390910190a350600192915050565b610e4633610ed0565b1515610e5157600080fd5b60055460ff161515610e6257600080fd5b6005805460ff191690556040805133815290517f5db9ee0a495bf2e6ff9c91a7834c1ba4fdd244a5e8aa4e537bd38aeae4b073aa9181900360200190a1565b600e5481565b6000610eb23361125e565b1515610ebd57600080fd5b610ec78383611431565b50600192915050565b6000610bea60048363ffffffff6115bd16565b610eeb611146565b600160a060020a031633600160a060020a03161480610f0e5750610f0e33610bf0565b1515610f1957600080fd5b60408051600160a060020a038316815290517f16220188fd357ae3d9cf432f984d1ea5c73787b829a3e72a4b807e8c0ebf5b0c9181900360200190a1600160a060020a03166000908152600760205260409020805460ff19166001179055565b60055460ff1690565b610f8a611146565b600160a060020a031633600160a060020a03161480610fad5750610fad33610bf0565b1515610fb857600080fd5b60408051600160a060020a038316815290517f5e40a439a19faa971f5d14cf300dcd7ee0d236808b9a988c9b4ca89cb833e9619181900360200190a1600160a060020a03166000908152600660205260409020805460ff19169055565b61101e336115f4565b565b600160a060020a031660009081526020819052604090205490565b61104361115a565b151561104e57600080fd5b6005546040516000916101009004600160a060020a0316907f8be0079c531659141344cd1fd0a4f28419497f9722a3daafe3b4186f6b6457e0908390a36005805474ffffffffffffffffffffffffffffffffffffffff0019169055565b60066020526000908152604090205460ff1681565b6110c933610ed0565b15156110d457600080fd5b6110dd8161163c565b50565b6110e933610ed0565b15156110f457600080fd5b60055460ff161561110457600080fd5b6005805460ff191660011790556040805133815290517f62e78cea01bee320cd4e420270b5ea74000d11b0c9f74754ebdbfc544b05a2589181900360200190a1565b6005546101009004600160a060020a031690565b6005546101009004600160a060020a0316331490565b600a805460408051602060026001851615610100026000190190941693909304601f81018490048402820184019092528181529291830182828015610b695780601f10610b3e57610100808354040283529160200191610b69565b6111d43361125e565b15156111df57600080fd5b6110dd81611684565b61101e336116cc565b60076020526000908152604090205460ff1681565b6000600160a060020a038316151561121d57600080fd5b336000908152600160209081526040808320600160a060020a0387168452909152902054610dd8908363ffffffff6114db16565b6000610ec73384846114f0565b6000610bea60038363ffffffff6115bd16565b611279611146565b600160a060020a031633600160a060020a0316148061129c575061129c33610bf0565b15156112a757600080fd5b60408051600160a060020a038316815290517f6e5eedde7d0d690d55dea362660be04ef1eb36252e48817545afb1ae6b245a409181900360200190a1600160a060020a03166000908152600660205260409020805460ff19166001179055565b600160a060020a03918216600090815260016020908152604080832093909416825291909152205490565b61133a61115a565b151561134557600080fd5b60055460ff161561135557600080fd5b600160a060020a038116151561136a57600080fd5b600d805473ffffffffffffffffffffffffffffffffffffffff1916600160a060020a03838116919091179182905560408051929091168252517fe80d9383fb35934b174e9a5986b6ec524e533eae802ba534282f7b0c5fdd42cc916020908290030190a150565b6113d961115a565b15156113e457600080fd5b6110dd81611714565b60008215156113fe57506000610bea565b82820282848281151561140d57fe5b041461141857600080fd5b9392505050565b60008282018381101561141857600080fd5b600160a060020a038216151561144657600080fd5b600254611459908263ffffffff61141f16565b600255600160a060020a038216600090815260208190526040902054611485908263ffffffff61141f16565b600160a060020a0383166000818152602081815260408083209490945583518581529351929391927fddf252ad1be2c89b69c2b068fc378daa952ba7f163c4a11628f55a4df523b3ef9281900390910190a35050565b6000828211156114ea57600080fd5b50900390565b600160a060020a038216151561150557600080fd5b600160a060020a03831660009081526020819052604090205461152e908263ffffffff6114db16565b600160a060020a038085166000908152602081905260408082209390935590841681522054611563908263ffffffff61141f16565b600160a060020a038084166000818152602081815260409182902094909455805185815290519193928716927fddf252ad1be2c89b69c2b068fc378daa952ba7f163c4a11628f55a4df523b3ef92918290030190a3505050565b6000600160a060020a03821615156115d457600080fd5b50600160a060020a03166000908152602091909152604090205460ff1690565b61160560048263ffffffff61179d16565b604051600160a060020a038216907fcd265ebaf09df2871cc7bd4133404a235ba12eff2041bb89d9c714a2621c7c7e90600090a250565b61164d60048263ffffffff6117e916565b604051600160a060020a038216907f6719d08c1888103bea251a4ed56406bd0c3e69723c8a1686e017e7bbe159b6f890600090a250565b61169560038263ffffffff6117e916565b604051600160a060020a038216907f6ae172837ea30b801fbfcdd4108aa1d5bf8ff775444fd70256b44e6bf3dfc3f690600090a250565b6116dd60038263ffffffff61179d16565b604051600160a060020a038216907fe94479a9f7e1952cc78f2d6baab678adc1b772d936c6583def489e524cb6669290600090a250565b600160a060020a038116151561172957600080fd5b600554604051600160a060020a0380841692610100900416907f8be0079c531659141344cd1fd0a4f28419497f9722a3daafe3b4186f6b6457e090600090a360058054600160a060020a039092166101000274ffffffffffffffffffffffffffffffffffffffff0019909216919091179055565b600160a060020a03811615156117b257600080fd5b6117bc82826115bd565b15156117c757600080fd5b600160a060020a0316600090815260209190915260409020805460ff19169055565b600160a060020a03811615156117fe57600080fd5b61180882826115bd565b1561181257600080fd5b600160a060020a0316600090815260209190915260409020805460ff1916600117905556fea165627a7a7230582074ca7f8534d2b9c409b72aad1e64c0e10764672f1f98546d7b18119378c191820029",
  "source": "pragma solidity ^0.5.0;\nimport 'openzeppelin-solidity/contracts/token/ERC20/ERC20Mintable.sol';\nimport 'openzeppelin-solidity/contracts/lifecycle/Pausable.sol';\nimport \"openzeppelin-solidity/contracts/utils/ReentrancyGuard.sol\";\n\nimport './WhiteList.sol';\n\n\ncontract C50V2 is ERC20Mintable, Pausable, WhiteList, ReentrancyGuard {\n    string public name = \"Cryptocurrency 50 Index\";\n    string public symbol = \"C50\";\n    uint8 public decimals = 18;\n    uint256 public constant INITIAL_SUPPLY = 10000000 * (10 ** uint256(18));\n    uint256 public constant MAX_SUPPLY = 250000000000 * (10 ** uint256(18));\n    uint256 public rate; // How many token units a buyer gets per wei\n    address payable private wallet;  // Address where funds are collected\n    uint256 public weiRaised; // Amount of wei raised\n\n  /**\n   * Event for token purchase logging\n   * @param purchaser who paid for the tokens\n   * @param beneficiary who got the tokens\n   * @param value weis paid for purchase\n   * @param amount amount of tokens purchased\n   */\n  event TokenPurchase(\n    address indexed purchaser,\n    address indexed beneficiary,\n    uint256 value,\n    uint256 amount\n  );\n\n  event SetWallet(address wallet);\n  event SetRate(uint256 indexed rate);\n\n  constructor() public {\n    _mint(msg.sender, INITIAL_SUPPLY);\n    rate = 500;\n    wallet = msg.sender;\n  }\n\n  //Fallback function\n  function () external payable {\n    buyTokens(msg.sender);\n  }\n\n  function buyTokens(address _beneficiary) whenNotPaused nonReentrant public payable {\n    uint256 _weiAmount = msg.value;\n    require(_beneficiary != address(0));\n    require(_weiAmount > 0);\n    require(onWhitelist(_beneficiary));\n\n    // calculate token amount to be created\n    uint256 _amount = _weiAmount.mul(rate);\n\n    // update state\n\n    require(totalSupply().add(_amount) <= MAX_SUPPLY);\n    _mint(_beneficiary, _amount);\n    weiRaised = weiRaised.add(_weiAmount);\n\n    // _transfer(_beneficiary, wallet, _weiAmount);\n    address(wallet).transfer(_weiAmount);\n    emit TokenPurchase(msg.sender, _beneficiary, _weiAmount, _amount);\n  }\n\n\n  function setWallet(address payable _wallet) onlyOwner whenNotPaused public {\n    require(_wallet != address(0));\n    wallet = _wallet;\n    emit SetWallet(wallet);\n  }\n\n\n  function setRate(uint256 _rate) onlyOwner whenNotPaused public {\n    require(_rate > 0);\n    rate = _rate;\n    emit SetRate(rate);\n  }\n}",
  "sourcePath": "/home/mark/drive/development/c50/c50-token/contracts/C50V2.sol",
  "compiler": {
    "name": "solc",
    "version": "0.5.0+commit.1d4f565a.Emscripten.clang"
  },
  "schemaVersion": "3.0.1",
  "updatedAt": "2019-02-03T22:54:08.950Z",
  "devdoc": {
    "methods": {
      "allowance(address,address)": {
        "details": "Function to check the amount of tokens that an owner allowed to a spender.",
        "params": {
          "owner": "address The address which owns the funds.",
          "spender": "address The address which will spend the funds."
        },
        "return": "A uint256 specifying the amount of tokens still available for the spender."
      },
      "approve(address,uint256)": {
        "details": "Approve the passed address to spend the specified amount of tokens on behalf of msg.sender. Beware that changing an allowance with this method brings the risk that someone may use both the old and the new allowance by unfortunate transaction ordering. One possible solution to mitigate this race condition is to first reduce the spender's allowance to 0 and set the desired value afterwards: https://github.com/ethereum/EIPs/issues/20#issuecomment-263524729",
        "params": {
          "spender": "The address which will spend the funds.",
          "value": "The amount of tokens to be spent."
        }
      },
      "balanceOf(address)": {
        "details": "Gets the balance of the specified address.",
        "params": {
          "owner": "The address to query the balance of."
        },
        "return": "An uint256 representing the amount owned by the passed address."
      },
      "decreaseAllowance(address,uint256)": {
        "details": "Decrease the amount of tokens that an owner allowed to a spender. approve should be called when allowed_[_spender] == 0. To decrement allowed value is better to use this function to avoid 2 calls (and wait until the first transaction is mined) From MonolithDAO Token.sol Emits an Approval event.",
        "params": {
          "spender": "The address which will spend the funds.",
          "subtractedValue": "The amount of tokens to decrease the allowance by."
        }
      },
      "increaseAllowance(address,uint256)": {
        "details": "Increase the amount of tokens that an owner allowed to a spender. approve should be called when allowed_[_spender] == 0. To increment allowed value is better to use this function to avoid 2 calls (and wait until the first transaction is mined) From MonolithDAO Token.sol Emits an Approval event.",
        "params": {
          "addedValue": "The amount of tokens to increase the allowance by.",
          "spender": "The address which will spend the funds."
        }
      },
      "isOwner()": {
        "return": "true if `msg.sender` is the owner of the contract."
      },
      "mint(address,uint256)": {
        "details": "Function to mint tokens",
        "params": {
          "to": "The address that will receive the minted tokens.",
          "value": "The amount of tokens to mint."
        },
        "return": "A boolean that indicates if the operation was successful."
      },
      "owner()": {
        "return": "the address of the owner."
      },
      "pause()": {
        "details": "called by the owner to pause, triggers stopped state"
      },
      "paused()": {
        "return": "true if the contract is paused, false otherwise."
      },
      "renounceOwnership()": {
        "details": "Allows the current owner to relinquish control of the contract."
      },
      "totalSupply()": {
        "details": "Total number of tokens in existence"
      },
      "transfer(address,uint256)": {
        "details": "Transfer token for a specified address",
        "params": {
          "to": "The address to transfer to.",
          "value": "The amount to be transferred."
        }
      },
      "transferFrom(address,address,uint256)": {
        "details": "Transfer tokens from one address to another. Note that while this function emits an Approval event, this is not required as per the specification, and other compliant implementations may not emit the event.",
        "params": {
          "from": "address The address which you want to send tokens from",
          "to": "address The address which you want to transfer to",
          "value": "uint256 the amount of tokens to be transferred"
        }
      },
      "transferOwnership(address)": {
        "details": "Allows the current owner to transfer control of the contract to a newOwner.",
        "params": {
          "newOwner": "The address to transfer ownership to."
        }
      },
      "unpause()": {
        "details": "called by the owner to unpause, returns to normal state"
      }
    }
  },
  "userdoc": {
    "methods": {
      "renounceOwnership()": {
        "notice": "Renouncing to ownership will leave the contract without an owner. It will not be possible to call the functions with the `onlyOwner` modifier anymore."
      }
    }
  }
}