{
  "contractName": "C50V2",
  "abi": [
    {
      "constant": false,
      "inputs": [
        {
          "name": "_address",
          "type": "address"
        }
      ],
      "name": "removeFromWhiteList",
      "outputs": [],
      "payable": false,
      "stateMutability": "nonpayable",
      "type": "function"
    },
    {
      "constant": true,
      "inputs": [],
      "name": "mintingFinished",
      "outputs": [
        {
          "name": "",
          "type": "bool"
        }
      ],
      "payable": false,
      "stateMutability": "view",
      "type": "function"
    },
    {
      "constant": true,
      "inputs": [],
      "name": "name",
      "outputs": [
        {
          "name": "",
          "type": "string"
        }
      ],
      "payable": false,
      "stateMutability": "view",
      "type": "function"
    },
    {
      "constant": false,
      "inputs": [
        {
          "name": "_spender",
          "type": "address"
        },
        {
          "name": "_value",
          "type": "uint256"
        }
      ],
      "name": "approve",
      "outputs": [
        {
          "name": "",
          "type": "bool"
        }
      ],
      "payable": false,
      "stateMutability": "nonpayable",
      "type": "function"
    },
    {
      "constant": true,
      "inputs": [
        {
          "name": "_address",
          "type": "address"
        }
      ],
      "name": "isAdministrator",
      "outputs": [
        {
          "name": "",
          "type": "bool"
        }
      ],
      "payable": false,
      "stateMutability": "view",
      "type": "function"
    },
    {
      "constant": true,
      "inputs": [],
      "name": "totalSupply",
      "outputs": [
        {
          "name": "",
          "type": "uint256"
        }
      ],
      "payable": false,
      "stateMutability": "view",
      "type": "function"
    },
    {
      "constant": true,
      "inputs": [
        {
          "name": "_address",
          "type": "address"
        }
      ],
      "name": "onWhitelist",
      "outputs": [
        {
          "name": "",
          "type": "bool"
        }
      ],
      "payable": false,
      "stateMutability": "view",
      "type": "function"
    },
    {
      "constant": false,
      "inputs": [
        {
          "name": "_from",
          "type": "address"
        },
        {
          "name": "_to",
          "type": "address"
        },
        {
          "name": "_value",
          "type": "uint256"
        }
      ],
      "name": "transferFrom",
      "outputs": [
        {
          "name": "",
          "type": "bool"
        }
      ],
      "payable": false,
      "stateMutability": "nonpayable",
      "type": "function"
    },
    {
      "constant": true,
      "inputs": [],
      "name": "rate",
      "outputs": [
        {
          "name": "",
          "type": "uint256"
        }
      ],
      "payable": false,
      "stateMutability": "view",
      "type": "function"
    },
    {
      "constant": true,
      "inputs": [],
      "name": "INITIAL_SUPPLY",
      "outputs": [
        {
          "name": "",
          "type": "uint256"
        }
      ],
      "payable": false,
      "stateMutability": "view",
      "type": "function"
    },
    {
      "constant": true,
      "inputs": [],
      "name": "decimals",
      "outputs": [
        {
          "name": "",
          "type": "uint8"
        }
      ],
      "payable": false,
      "stateMutability": "view",
      "type": "function"
    },
    {
      "constant": true,
      "inputs": [],
      "name": "MAX_SUPPLY",
      "outputs": [
        {
          "name": "",
          "type": "uint256"
        }
      ],
      "payable": false,
      "stateMutability": "view",
      "type": "function"
    },
    {
      "constant": false,
      "inputs": [],
      "name": "unpause",
      "outputs": [],
      "payable": false,
      "stateMutability": "nonpayable",
      "type": "function"
    },
    {
      "constant": true,
      "inputs": [],
      "name": "weiRaised",
      "outputs": [
        {
          "name": "",
          "type": "uint256"
        }
      ],
      "payable": false,
      "stateMutability": "view",
      "type": "function"
    },
    {
      "constant": false,
      "inputs": [
        {
          "name": "_to",
          "type": "address"
        },
        {
          "name": "_amount",
          "type": "uint256"
        }
      ],
      "name": "mint",
      "outputs": [
        {
          "name": "",
          "type": "bool"
        }
      ],
      "payable": false,
      "stateMutability": "nonpayable",
      "type": "function"
    },
    {
      "constant": false,
      "inputs": [
        {
          "name": "_address",
          "type": "address"
        }
      ],
      "name": "addToWhiteList",
      "outputs": [],
      "payable": false,
      "stateMutability": "nonpayable",
      "type": "function"
    },
    {
      "constant": true,
      "inputs": [],
      "name": "wallet",
      "outputs": [
        {
          "name": "",
          "type": "address"
        }
      ],
      "payable": false,
      "stateMutability": "view",
      "type": "function"
    },
    {
      "constant": true,
      "inputs": [],
      "name": "paused",
      "outputs": [
        {
          "name": "",
          "type": "bool"
        }
      ],
      "payable": false,
      "stateMutability": "view",
      "type": "function"
    },
    {
      "constant": false,
      "inputs": [
        {
          "name": "_spender",
          "type": "address"
        },
        {
          "name": "_subtractedValue",
          "type": "uint256"
        }
      ],
      "name": "decreaseApproval",
      "outputs": [
        {
          "name": "",
          "type": "bool"
        }
      ],
      "payable": false,
      "stateMutability": "nonpayable",
      "type": "function"
    },
    {
      "constant": false,
      "inputs": [
        {
          "name": "_address",
          "type": "address"
        }
      ],
      "name": "removeAdministrator",
      "outputs": [],
      "payable": false,
      "stateMutability": "nonpayable",
      "type": "function"
    },
    {
      "constant": true,
      "inputs": [
        {
          "name": "_owner",
          "type": "address"
        }
      ],
      "name": "balanceOf",
      "outputs": [
        {
          "name": "",
          "type": "uint256"
        }
      ],
      "payable": false,
      "stateMutability": "view",
      "type": "function"
    },
    {
      "constant": false,
      "inputs": [],
      "name": "renounceOwnership",
      "outputs": [],
      "payable": false,
      "stateMutability": "nonpayable",
      "type": "function"
    },
    {
      "constant": true,
      "inputs": [
        {
          "name": "",
          "type": "address"
        }
      ],
      "name": "administrators",
      "outputs": [
        {
          "name": "",
          "type": "bool"
        }
      ],
      "payable": false,
      "stateMutability": "view",
      "type": "function"
    },
    {
      "constant": false,
      "inputs": [],
      "name": "finishMinting",
      "outputs": [
        {
          "name": "",
          "type": "bool"
        }
      ],
      "payable": false,
      "stateMutability": "nonpayable",
      "type": "function"
    },
    {
      "constant": false,
      "inputs": [],
      "name": "pause",
      "outputs": [],
      "payable": false,
      "stateMutability": "nonpayable",
      "type": "function"
    },
    {
      "constant": true,
      "inputs": [],
      "name": "owner",
      "outputs": [
        {
          "name": "",
          "type": "address"
        }
      ],
      "payable": false,
      "stateMutability": "view",
      "type": "function"
    },
    {
      "constant": true,
      "inputs": [],
      "name": "symbol",
      "outputs": [
        {
          "name": "",
          "type": "string"
        }
      ],
      "payable": false,
      "stateMutability": "view",
      "type": "function"
    },
    {
      "constant": true,
      "inputs": [
        {
          "name": "",
          "type": "address"
        }
      ],
      "name": "whitelist",
      "outputs": [
        {
          "name": "",
          "type": "bool"
        }
      ],
      "payable": false,
      "stateMutability": "view",
      "type": "function"
    },
    {
      "constant": false,
      "inputs": [
        {
          "name": "_to",
          "type": "address"
        },
        {
          "name": "_value",
          "type": "uint256"
        }
      ],
      "name": "transfer",
      "outputs": [
        {
          "name": "",
          "type": "bool"
        }
      ],
      "payable": false,
      "stateMutability": "nonpayable",
      "type": "function"
    },
    {
      "constant": false,
      "inputs": [
        {
          "name": "_address",
          "type": "address"
        }
      ],
      "name": "addAdministrator",
      "outputs": [],
      "payable": false,
      "stateMutability": "nonpayable",
      "type": "function"
    },
    {
      "constant": false,
      "inputs": [
        {
          "name": "_spender",
          "type": "address"
        },
        {
          "name": "_addedValue",
          "type": "uint256"
        }
      ],
      "name": "increaseApproval",
      "outputs": [
        {
          "name": "",
          "type": "bool"
        }
      ],
      "payable": false,
      "stateMutability": "nonpayable",
      "type": "function"
    },
    {
      "constant": true,
      "inputs": [
        {
          "name": "_owner",
          "type": "address"
        },
        {
          "name": "_spender",
          "type": "address"
        }
      ],
      "name": "allowance",
      "outputs": [
        {
          "name": "",
          "type": "uint256"
        }
      ],
      "payable": false,
      "stateMutability": "view",
      "type": "function"
    },
    {
      "constant": false,
      "inputs": [
        {
          "name": "_newOwner",
          "type": "address"
        }
      ],
      "name": "transferOwnership",
      "outputs": [],
      "payable": false,
      "stateMutability": "nonpayable",
      "type": "function"
    },
    {
      "inputs": [],
      "payable": false,
      "stateMutability": "nonpayable",
      "type": "constructor"
    },
    {
      "payable": true,
      "stateMutability": "payable",
      "type": "fallback"
    },
    {
      "anonymous": false,
      "inputs": [
        {
          "indexed": true,
          "name": "purchaser",
          "type": "address"
        },
        {
          "indexed": true,
          "name": "beneficiary",
          "type": "address"
        },
        {
          "indexed": false,
          "name": "value",
          "type": "uint256"
        },
        {
          "indexed": false,
          "name": "amount",
          "type": "uint256"
        }
      ],
      "name": "TokenPurchase",
      "type": "event"
    },
    {
      "anonymous": false,
      "inputs": [
        {
          "indexed": true,
          "name": "to",
          "type": "address"
        },
        {
          "indexed": false,
          "name": "amount",
          "type": "uint256"
        }
      ],
      "name": "Mint",
      "type": "event"
    },
    {
      "anonymous": false,
      "inputs": [
        {
          "indexed": false,
          "name": "wallet",
          "type": "address"
        }
      ],
      "name": "SetWallet",
      "type": "event"
    },
    {
      "anonymous": false,
      "inputs": [
        {
          "indexed": true,
          "name": "rate",
          "type": "uint256"
        }
      ],
      "name": "SetRate",
      "type": "event"
    },
    {
      "anonymous": false,
      "inputs": [
        {
          "indexed": false,
          "name": "sender",
          "type": "address"
        },
        {
          "indexed": false,
          "name": "value",
          "type": "uint256"
        }
      ],
      "name": "FallBack",
      "type": "event"
    },
    {
      "anonymous": false,
      "inputs": [
        {
          "indexed": false,
          "name": "investor",
          "type": "address"
        }
      ],
      "name": "AddToWhiteList",
      "type": "event"
    },
    {
      "anonymous": false,
      "inputs": [
        {
          "indexed": false,
          "name": "investor",
          "type": "address"
        }
      ],
      "name": "RemoveFromWhiteList",
      "type": "event"
    },
    {
      "anonymous": false,
      "inputs": [
        {
          "indexed": false,
          "name": "administrator",
          "type": "address"
        }
      ],
      "name": "AddAdministrator",
      "type": "event"
    },
    {
      "anonymous": false,
      "inputs": [
        {
          "indexed": false,
          "name": "administrator",
          "type": "address"
        }
      ],
      "name": "RemoveAdministrator",
      "type": "event"
    },
    {
      "anonymous": false,
      "inputs": [],
      "name": "Pause",
      "type": "event"
    },
    {
      "anonymous": false,
      "inputs": [],
      "name": "Unpause",
      "type": "event"
    },
    {
      "anonymous": false,
      "inputs": [],
      "name": "MintFinished",
      "type": "event"
    },
    {
      "anonymous": false,
      "inputs": [
        {
          "indexed": true,
          "name": "previousOwner",
          "type": "address"
        }
      ],
      "name": "OwnershipRenounced",
      "type": "event"
    },
    {
      "anonymous": false,
      "inputs": [
        {
          "indexed": true,
          "name": "previousOwner",
          "type": "address"
        },
        {
          "indexed": true,
          "name": "newOwner",
          "type": "address"
        }
      ],
      "name": "OwnershipTransferred",
      "type": "event"
    },
    {
      "anonymous": false,
      "inputs": [
        {
          "indexed": true,
          "name": "owner",
          "type": "address"
        },
        {
          "indexed": true,
          "name": "spender",
          "type": "address"
        },
        {
          "indexed": false,
          "name": "value",
          "type": "uint256"
        }
      ],
      "name": "Approval",
      "type": "event"
    },
    {
      "anonymous": false,
      "inputs": [
        {
          "indexed": true,
          "name": "from",
          "type": "address"
        },
        {
          "indexed": true,
          "name": "to",
          "type": "address"
        },
        {
          "indexed": false,
          "name": "value",
          "type": "uint256"
        }
      ],
      "name": "Transfer",
      "type": "event"
    },
    {
      "constant": false,
      "inputs": [
        {
          "name": "_beneficiary",
          "type": "address"
        }
      ],
      "name": "buyTokens",
      "outputs": [],
      "payable": true,
      "stateMutability": "payable",
      "type": "function"
    },
    {
      "constant": false,
      "inputs": [
        {
          "name": "_wallet",
          "type": "address"
        }
      ],
      "name": "setWallet",
      "outputs": [],
      "payable": false,
      "stateMutability": "nonpayable",
      "type": "function"
    },
    {
      "constant": false,
      "inputs": [
        {
          "name": "_rate",
          "type": "uint256"
        }
      ],
      "name": "setRate",
      "outputs": [],
      "payable": false,
      "stateMutability": "nonpayable",
      "type": "function"
    }
  ],
  "bytecode": "0x6003805460a060020a61ffff021916905560c0604052601760808190527f43727970746f63757272656e637920353020496e64657800000000000000000060a090815262000051916006919062000142565b506040805180820190915260038082527f43353000000000000000000000000000000000000000000000000000000000006020909201918252620000989160079162000142565b506008805460ff19908116601217909155600c80549091169055348015620000bf57600080fd5b506003805433600160a060020a031991821681179092556a084595161401484a00000060018190556000838152602081815260408083208490556101f4600955600a805490951686179094558351928352925190927fddf252ad1be2c89b69c2b068fc378daa952ba7f163c4a11628f55a4df523b3ef928290030190a3620001e7565b828054600181600116156101000203166002900490600052602060002090601f016020900481019282601f106200018557805160ff1916838001178555620001b5565b82800160010185558215620001b5579182015b82811115620001b557825182559160200191906001019062000198565b50620001c3929150620001c7565b5090565b620001e491905b80821115620001c35760008155600101620001ce565b90565b61162c80620001f76000396000f3006080604052600436106101c15763ffffffff7c010000000000000000000000000000000000000000000000000000000060003504166301bf664881146101cc57806305d2035b146101ed57806306fdde0314610216578063095ea7b3146102a05780630a2eb301146102c457806318160ddd146102e55780631d6086591461030c57806323b872dd1461032d5780632c4e722e146103575780632ff2e9dc1461036c578063313ce5671461038157806332cb6b0c146103ac57806334fcf437146103c15780633f4ba83a146103d95780634042b66f146103ee57806340c10f191461040357806347ee039414610427578063521eb273146104485780635c975abb14610479578063661884631461048e57806368fa8134146104b257806370a08231146104d3578063715018a6146104f457806376be1585146105095780637d64bcb41461052a5780638456cb591461053f5780638da5cb5b1461055457806395d89b41146105695780639b19251a1461057e578063a9059cbb1461059f578063c9991176146105c3578063d73dd623146105e4578063dd62ed3e14610608578063deaa59df1461062f578063ec8ac4d814610650578063f2fde38b14610664575b6101ca33610685565b005b3480156101d857600080fd5b506101ca600160a060020a036004351661087a565b3480156101f957600080fd5b506102026108ff565b604080519115158252519081900360200190f35b34801561022257600080fd5b5061022b610920565b6040805160208082528351818301528351919283929083019185019080838360005b8381101561026557818101518382015260200161024d565b50505050905090810190601f1680156102925780820380516001836020036101000a031916815260200191505b509250505060405180910390f35b3480156102ac57600080fd5b50610202600160a060020a03600435166024356109ae565b3480156102d057600080fd5b50610202600160a060020a0360043516610a15565b3480156102f157600080fd5b506102fa610a33565b60408051918252519081900360200190f35b34801561031857600080fd5b50610202600160a060020a0360043516610a39565b34801561033957600080fd5b50610202600160a060020a0360043581169060243516604435610a57565b34801561036357600080fd5b506102fa610bba565b34801561037857600080fd5b506102fa610bc0565b34801561038d57600080fd5b50610396610bcf565b6040805160ff9092168252519081900360200190f35b3480156103b857600080fd5b506102fa610bd8565b3480156103cd57600080fd5b506101ca600435610be9565b3480156103e557600080fd5b506101ca610c57565b3480156103fa57600080fd5b506102fa610cd0565b34801561040f57600080fd5b50610202600160a060020a0360043516602435610cd6565b34801561043357600080fd5b506101ca600160a060020a0360043516610ddf565b34801561045457600080fd5b5061045d610e67565b60408051600160a060020a039092168252519081900360200190f35b34801561048557600080fd5b50610202610e76565b34801561049a57600080fd5b50610202600160a060020a0360043516602435610e7f565b3480156104be57600080fd5b506101ca600160a060020a0360043516610f6e565b3480156104df57600080fd5b506102fa600160a060020a0360043516610ff3565b34801561050057600080fd5b506101ca61100e565b34801561051557600080fd5b50610202600160a060020a036004351661107c565b34801561053657600080fd5b50610202611091565b34801561054b57600080fd5b506101ca611137565b34801561056057600080fd5b5061045d6111b5565b34801561057557600080fd5b5061022b6111c4565b34801561058a57600080fd5b50610202600160a060020a036004351661121f565b3480156105ab57600080fd5b50610202600160a060020a0360043516602435611234565b3480156105cf57600080fd5b506101ca600160a060020a0360043516611301565b3480156105f057600080fd5b50610202600160a060020a0360043516602435611389565b34801561061457600080fd5b506102fa600160a060020a0360043581169060243516611422565b34801561063b57600080fd5b506101ca600160a060020a036004351661144d565b6101ca600160a060020a0360043516610685565b34801561067057600080fd5b506101ca600160a060020a03600435166114f7565b600354600090819060a860020a900460ff16156106a157600080fd5b349150600160a060020a03831615156106b957600080fd5b600082116106c657600080fd5b6106cf83610a39565b15156106da57600080fd5b6009546106ee90839063ffffffff61151a16565b600b54909150610704908363ffffffff61154316565b600b556001546c0327cb2734119d3b7a9000000090610729908363ffffffff61154316565b111561073457600080fd5b600154610747908263ffffffff61154316565b600155600160a060020a038316600090815260208190526040902054610773908263ffffffff61154316565b600160a060020a03841660008181526020818152604091829020939093558051848152905191927f0f6798a560793a54c3bcfe86a93cde1e73087d944c0ea20544137d412139688592918290030190a2604080518281529051600160a060020a038516916000916000805160206115e18339815191529181900360200190a360408051838152602081018390528151600160a060020a0386169233927f623b3804fa71d67900d064613da8f94b9617215ee90799290593e1745087ad18929081900390910190a3600a54604051600160a060020a039091169083156108fc029084906000818181858888f19350505050158015610874573d6000803e3d6000fd5b50505050565b600354600160a060020a0316331480610897575061089733610a15565b15156108a257600080fd5b60408051600160a060020a038316815290517f80f4d7be9d601c8487132194fd218772956b9b20b704060810edd362c193220c9181900360200190a1600160a060020a03166000908152600560205260409020805460ff19169055565b60035474010000000000000000000000000000000000000000900460ff1681565b6006805460408051602060026001851615610100026000190190941693909304601f810184900484028201840190925281815292918301828280156109a65780601f1061097b576101008083540402835291602001916109a6565b820191906000526020600020905b81548152906001019060200180831161098957829003601f168201915b505050505081565b336000818152600260209081526040808320600160a060020a038716808552908352818420869055815186815291519394909390927f8c5be1e5ebec7d5bd14f71427d1e84f3dd0314c0f7b2291e5b200ac8c7c3b925928290030190a35060015b92915050565b600160a060020a031660009081526004602052604090205460ff1690565b60015490565b600160a060020a031660009081526005602052604090205460ff1690565b600160a060020a038316600090815260208190526040812054821115610a7c57600080fd5b600160a060020a0384166000908152600260209081526040808320338452909152902054821115610aac57600080fd5b600160a060020a0383161515610ac157600080fd5b600160a060020a038416600090815260208190526040902054610aea908363ffffffff61155016565b600160a060020a038086166000908152602081905260408082209390935590851681522054610b1f908363ffffffff61154316565b600160a060020a03808516600090815260208181526040808320949094559187168152600282528281203382529091522054610b61908363ffffffff61155016565b600160a060020a03808616600081815260026020908152604080832033845282529182902094909455805186815290519287169391926000805160206115e1833981519152929181900390910190a35060019392505050565b60095481565b6a084595161401484a00000081565b60085460ff1681565b6c0327cb2734119d3b7a9000000081565b600354600160a060020a03163314610c0057600080fd5b60035460a860020a900460ff1615610c1757600080fd5b60008111610c2457600080fd5b600981905560405181907f2640b4015d3473fd09bf2b30939e17deb4068cdacf3892136e737e166ceb321090600090a250565b600354600160a060020a03163314610c6e57600080fd5b60035460a860020a900460ff161515610c8657600080fd5b6003805475ff000000000000000000000000000000000000000000191690556040517f7805862f689e2f13df9f062ff482ad3ad112aca9e0847911ed832e158c525b3390600090a1565b600b5481565b600354600090600160a060020a03163314610cf057600080fd5b60035474010000000000000000000000000000000000000000900460ff1615610d1857600080fd5b600154610d2b908363ffffffff61154316565b600155600160a060020a038316600090815260208190526040902054610d57908363ffffffff61154316565b600160a060020a03841660008181526020818152604091829020939093558051858152905191927f0f6798a560793a54c3bcfe86a93cde1e73087d944c0ea20544137d412139688592918290030190a2604080518381529051600160a060020a038516916000916000805160206115e18339815191529181900360200190a350600192915050565b600354600160a060020a0316331480610dfc5750610dfc33610a15565b1515610e0757600080fd5b60408051600160a060020a038316815290517f16220188fd357ae3d9cf432f984d1ea5c73787b829a3e72a4b807e8c0ebf5b0c9181900360200190a1600160a060020a03166000908152600560205260409020805460ff19166001179055565b600a54600160a060020a031681565b600c5460ff1681565b336000908152600260209081526040808320600160a060020a0386168452909152812054808310610ed357336000908152600260209081526040808320600160a060020a0388168452909152812055610f08565b610ee3818463ffffffff61155016565b336000908152600260209081526040808320600160a060020a03891684529091529020555b336000818152600260209081526040808320600160a060020a0389168085529083529281902054815190815290519293927f8c5be1e5ebec7d5bd14f71427d1e84f3dd0314c0f7b2291e5b200ac8c7c3b925929181900390910190a35060019392505050565b600354600160a060020a0316331480610f8b5750610f8b33610a15565b1515610f9657600080fd5b60408051600160a060020a038316815290517f5e40a439a19faa971f5d14cf300dcd7ee0d236808b9a988c9b4ca89cb833e9619181900360200190a1600160a060020a03166000908152600460205260409020805460ff19169055565b600160a060020a031660009081526020819052604090205490565b600354600160a060020a0316331461102557600080fd5b600354604051600160a060020a03909116907ff8df31144d9c2f0f6b59d69b8b98abd5459d07f2742c4df920b25aae33c6482090600090a26003805473ffffffffffffffffffffffffffffffffffffffff19169055565b60046020526000908152604090205460ff1681565b600354600090600160a060020a031633146110ab57600080fd5b60035474010000000000000000000000000000000000000000900460ff16156110d357600080fd5b6003805474ff00000000000000000000000000000000000000001916740100000000000000000000000000000000000000001790556040517fae5184fba832cb2b1f702aca6117b8d265eaf03ad33eb133f19dde0f5920fa0890600090a150600190565b600354600160a060020a0316331461114e57600080fd5b60035460a860020a900460ff161561116557600080fd5b6003805475ff000000000000000000000000000000000000000000191660a860020a1790556040517f6985a02210a168e66602d3235cb6db0e70f92b3ba4d376a33c0f3d9434bff62590600090a1565b600354600160a060020a031681565b6007805460408051602060026001851615610100026000190190941693909304601f810184900484028201840190925281815292918301828280156109a65780601f1061097b576101008083540402835291602001916109a6565b60056020526000908152604090205460ff1681565b3360009081526020819052604081205482111561125057600080fd5b600160a060020a038316151561126557600080fd5b33600090815260208190526040902054611285908363ffffffff61155016565b3360009081526020819052604080822092909255600160a060020a038516815220546112b7908363ffffffff61154316565b600160a060020a038416600081815260208181526040918290209390935580518581529051919233926000805160206115e18339815191529281900390910190a350600192915050565b600354600160a060020a031633148061131e575061131e33610a15565b151561132957600080fd5b60408051600160a060020a038316815290517f6e5eedde7d0d690d55dea362660be04ef1eb36252e48817545afb1ae6b245a409181900360200190a1600160a060020a03166000908152600460205260409020805460ff19166001179055565b336000908152600260209081526040808320600160a060020a03861684529091528120546113bd908363ffffffff61154316565b336000818152600260209081526040808320600160a060020a0389168085529083529281902085905580519485525191937f8c5be1e5ebec7d5bd14f71427d1e84f3dd0314c0f7b2291e5b200ac8c7c3b925929081900390910190a350600192915050565b600160a060020a03918216600090815260026020908152604080832093909416825291909152205490565b600354600160a060020a0316331461146457600080fd5b60035460a860020a900460ff161561147b57600080fd5b600160a060020a038116151561149057600080fd5b600a805473ffffffffffffffffffffffffffffffffffffffff1916600160a060020a03838116919091179182905560408051929091168252517fe80d9383fb35934b174e9a5986b6ec524e533eae802ba534282f7b0c5fdd42cc916020908290030190a150565b600354600160a060020a0316331461150e57600080fd5b61151781611562565b50565b600082151561152b57506000610a0f565b5081810281838281151561153b57fe5b0414610a0f57fe5b81810182811015610a0f57fe5b60008282111561155c57fe5b50900390565b600160a060020a038116151561157757600080fd5b600354604051600160a060020a038084169216907f8be0079c531659141344cd1fd0a4f28419497f9722a3daafe3b4186f6b6457e090600090a36003805473ffffffffffffffffffffffffffffffffffffffff1916600160a060020a03929092169190911790555600ddf252ad1be2c89b69c2b068fc378daa952ba7f163c4a11628f55a4df523b3efa165627a7a72305820e9bab12ef0e5c6ab89cce84199af5efda9bc2d2dfb655bd9b7c5254624e8467f0029",
  "source": "pragma solidity ^0.4.24;\n\nimport 'zeppelin-solidity/contracts/token/ERC20/MintableToken.sol';\nimport 'zeppelin-solidity/contracts/lifecycle/Pausable.sol';\nimport './WhiteList.sol';\n\n\ncontract C50V2 is MintableToken, Pausable, WhiteList {\n    string public name = \"Cryptocurrency 50 Index\";\n    string public symbol = \"C50\";\n    uint8 public decimals = 18;\n    uint256 public constant INITIAL_SUPPLY = 10000000 * (10 ** uint256(18));\n    uint256 public constant MAX_SUPPLY = 250000000000 * (10 ** uint256(18));\n    uint256 public rate; // How many token units a buyer gets per wei\n    address public wallet;  // Address where funds are collected\n    uint256 public weiRaised; // Amount of wei raised\n    bool public paused = false;\n\n  /**\n   * Event for token purchase logging\n   * @param purchaser who paid for the tokens\n   * @param beneficiary who got the tokens\n   * @param value weis paid for purchase\n   * @param amount amount of tokens purchased\n   */\n  event TokenPurchase(\n    address indexed purchaser,\n    address indexed beneficiary,\n    uint256 value,\n    uint256 amount\n  );\n\n  event Mint(address indexed to, uint256 amount);\n  event SetWallet(address wallet);\n  event SetRate(uint256 indexed rate);\n  event FallBack(address sender, uint256 value);\n\n  constructor() public {\n    totalSupply_ = INITIAL_SUPPLY;\n    balances[msg.sender] = INITIAL_SUPPLY;\n    rate = 500;\n    wallet = msg.sender;\n    emit Transfer(0x0, msg.sender, INITIAL_SUPPLY);\n  }\n\n  //Fallback function\n  function () external payable {\n    buyTokens(msg.sender);\n  }\n\n  function buyTokens(address _beneficiary) whenNotPaused public payable {\n    uint256 _weiAmount = msg.value;\n    require(_beneficiary != address(0));\n    require(_weiAmount > 0);\n    require(onWhitelist(_beneficiary));\n\n    // calculate token amount to be created\n    uint256 _amount = _weiAmount.mul(rate);\n\n    // update state\n    weiRaised = weiRaised.add(_weiAmount);\n\n    require(totalSupply_.add(_amount) <= MAX_SUPPLY);\n\n    totalSupply_ = totalSupply_.add(_amount);\n    balances[_beneficiary] = balances[_beneficiary].add(_amount);\n    emit Mint(_beneficiary, _amount);\n    emit Transfer(address(0), _beneficiary, _amount);\n    emit TokenPurchase(msg.sender, _beneficiary, _weiAmount, _amount);\n\n    wallet.transfer(_weiAmount);\n  }\n\n\n  function setWallet(address _wallet) onlyOwner whenNotPaused public {\n    require(_wallet != address(0));\n    wallet = _wallet;\n    emit SetWallet(wallet);\n  }\n\n\n  function setRate(uint256 _rate) onlyOwner whenNotPaused public {\n    require(_rate > 0);\n    rate = _rate;\n    emit SetRate(rate);\n  }\n}",
  "sourcePath": "/home/mark/drive/development/c50/contracts/C50V2.sol",
  "compiler": {
    "name": "solc",
    "version": "0.4.24+commit.e67f0147.Emscripten.clang"
  },
  "schemaVersion": "2.0.1",
  "updatedAt": "2018-10-06T12:03:47.247Z"
}