{
  "contractName": "WhiteList",
  "abi": [
    {
      "constant": true,
      "inputs": [
        {
          "name": "_address",
          "type": "address"
        }
      ],
      "name": "isAdministrator",
      "outputs": [
        {
          "name": "",
          "type": "bool"
        }
      ],
      "payable": false,
      "stateMutability": "view",
      "type": "function"
    },
    {
      "constant": false,
      "inputs": [
        {
          "name": "_address",
          "type": "address"
        }
      ],
      "name": "removeAdministrator",
      "outputs": [],
      "payable": false,
      "stateMutability": "nonpayable",
      "type": "function"
    },
    {
      "constant": false,
      "inputs": [],
      "name": "renounceOwnership",
      "outputs": [],
      "payable": false,
      "stateMutability": "nonpayable",
      "type": "function"
    },
    {
      "constant": true,
      "inputs": [
        {
          "name": "",
          "type": "address"
        }
      ],
      "name": "administrators",
      "outputs": [
        {
          "name": "",
          "type": "bool"
        }
      ],
      "payable": false,
      "stateMutability": "view",
      "type": "function"
    },
    {
      "constant": true,
      "inputs": [],
      "name": "owner",
      "outputs": [
        {
          "name": "",
          "type": "address"
        }
      ],
      "payable": false,
      "stateMutability": "view",
      "type": "function"
    },
    {
      "constant": true,
      "inputs": [
        {
          "name": "",
          "type": "address"
        }
      ],
      "name": "whitelist",
      "outputs": [
        {
          "name": "",
          "type": "bool"
        }
      ],
      "payable": false,
      "stateMutability": "view",
      "type": "function"
    },
    {
      "constant": false,
      "inputs": [
        {
          "name": "_address",
          "type": "address"
        }
      ],
      "name": "addAdministrator",
      "outputs": [],
      "payable": false,
      "stateMutability": "nonpayable",
      "type": "function"
    },
    {
      "constant": false,
      "inputs": [
        {
          "name": "_newOwner",
          "type": "address"
        }
      ],
      "name": "transferOwnership",
      "outputs": [],
      "payable": false,
      "stateMutability": "nonpayable",
      "type": "function"
    },
    {
      "anonymous": false,
      "inputs": [
        {
          "indexed": false,
          "name": "investor",
          "type": "address"
        }
      ],
      "name": "AddToWhiteList",
      "type": "event"
    },
    {
      "anonymous": false,
      "inputs": [
        {
          "indexed": false,
          "name": "investor",
          "type": "address"
        }
      ],
      "name": "RemoveFromWhiteList",
      "type": "event"
    },
    {
      "anonymous": false,
      "inputs": [
        {
          "indexed": false,
          "name": "administrator",
          "type": "address"
        }
      ],
      "name": "AddAdministrator",
      "type": "event"
    },
    {
      "anonymous": false,
      "inputs": [
        {
          "indexed": false,
          "name": "administrator",
          "type": "address"
        }
      ],
      "name": "RemoveAdministrator",
      "type": "event"
    },
    {
      "anonymous": false,
      "inputs": [
        {
          "indexed": true,
          "name": "previousOwner",
          "type": "address"
        }
      ],
      "name": "OwnershipRenounced",
      "type": "event"
    },
    {
      "anonymous": false,
      "inputs": [
        {
          "indexed": true,
          "name": "previousOwner",
          "type": "address"
        },
        {
          "indexed": true,
          "name": "newOwner",
          "type": "address"
        }
      ],
      "name": "OwnershipTransferred",
      "type": "event"
    },
    {
      "constant": false,
      "inputs": [
        {
          "name": "_address",
          "type": "address"
        }
      ],
      "name": "addToWhiteList",
      "outputs": [],
      "payable": false,
      "stateMutability": "nonpayable",
      "type": "function"
    },
    {
      "constant": false,
      "inputs": [
        {
          "name": "_address",
          "type": "address"
        }
      ],
      "name": "removeFromWhiteList",
      "outputs": [],
      "payable": false,
      "stateMutability": "nonpayable",
      "type": "function"
    },
    {
      "constant": true,
      "inputs": [
        {
          "name": "_address",
          "type": "address"
        }
      ],
      "name": "onWhitelist",
      "outputs": [
        {
          "name": "",
          "type": "bool"
        }
      ],
      "payable": false,
      "stateMutability": "view",
      "type": "function"
    }
  ],
  "bytecode": "0x608060405260008054600160a060020a03191633179055610602806100256000396000f3006080604052600436106100ae5763ffffffff7c010000000000000000000000000000000000000000000000000000000060003504166301bf664881146100b35780630a2eb301146100d65780631d6086591461010b57806347ee03941461012c57806368fa81341461014d578063715018a61461016e57806376be1585146101835780638da5cb5b146101a45780639b19251a146101d5578063c9991176146101f6578063f2fde38b14610217575b600080fd5b3480156100bf57600080fd5b506100d4600160a060020a0360043516610238565b005b3480156100e257600080fd5b506100f7600160a060020a03600435166102bd565b604080519115158252519081900360200190f35b34801561011757600080fd5b506100f7600160a060020a03600435166102db565b34801561013857600080fd5b506100d4600160a060020a03600435166102f9565b34801561015957600080fd5b506100d4600160a060020a0360043516610381565b34801561017a57600080fd5b506100d4610406565b34801561018f57600080fd5b506100f7600160a060020a0360043516610472565b3480156101b057600080fd5b506101b9610487565b60408051600160a060020a039092168252519081900360200190f35b3480156101e157600080fd5b506100f7600160a060020a0360043516610496565b34801561020257600080fd5b506100d4600160a060020a03600435166104ab565b34801561022357600080fd5b506100d4600160a060020a0360043516610536565b600054600160a060020a03163314806102555750610255336102bd565b151561026057600080fd5b60408051600160a060020a038316815290517f80f4d7be9d601c8487132194fd218772956b9b20b704060810edd362c193220c9181900360200190a1600160a060020a03166000908152600260205260409020805460ff19169055565b600160a060020a031660009081526001602052604090205460ff1690565b600160a060020a031660009081526002602052604090205460ff1690565b600054600160a060020a03163314806103165750610316336102bd565b151561032157600080fd5b60408051600160a060020a038316815290517f16220188fd357ae3d9cf432f984d1ea5c73787b829a3e72a4b807e8c0ebf5b0c9181900360200190a1600160a060020a03166000908152600260205260409020805460ff19166001179055565b600054600160a060020a031633148061039e575061039e336102bd565b15156103a957600080fd5b60408051600160a060020a038316815290517f5e40a439a19faa971f5d14cf300dcd7ee0d236808b9a988c9b4ca89cb833e9619181900360200190a1600160a060020a03166000908152600160205260409020805460ff19169055565b600054600160a060020a0316331461041d57600080fd5b60008054604051600160a060020a03909116917ff8df31144d9c2f0f6b59d69b8b98abd5459d07f2742c4df920b25aae33c6482091a26000805473ffffffffffffffffffffffffffffffffffffffff19169055565b60016020526000908152604090205460ff1681565b600054600160a060020a031681565b60026020526000908152604090205460ff1681565b600054600160a060020a03163314806104c857506104c8336102bd565b15156104d357600080fd5b60408051600160a060020a038316815290517f6e5eedde7d0d690d55dea362660be04ef1eb36252e48817545afb1ae6b245a409181900360200190a1600160a060020a03166000908152600160208190526040909120805460ff19169091179055565b600054600160a060020a0316331461054d57600080fd5b61055681610559565b50565b600160a060020a038116151561056e57600080fd5b60008054604051600160a060020a03808516939216917f8be0079c531659141344cd1fd0a4f28419497f9722a3daafe3b4186f6b6457e091a36000805473ffffffffffffffffffffffffffffffffffffffff1916600160a060020a03929092169190911790555600a165627a7a72305820c4720d1c38d2bed5f3ed0564c15379c0aa9b62854367a91720063286e3c1cc6e0029",
  "source": "pragma solidity ^0.4.24;\n\nimport \"./Administrable.sol\";\n\n/**\n * @title WhiteList\n * @dev The WhiteList shows who can buy a token\n */\ncontract WhiteList is Administrable {\n    mapping (address => bool) public whitelist;\n    event AddToWhiteList(address investor);\n  \tevent RemoveFromWhiteList(address investor);\n\n\t  function addToWhiteList(address _address) onlyAdministrator public {\n\t    emit AddToWhiteList(_address);\n\t    whitelist[_address] = true;\n\t  }\n\n\t  function removeFromWhiteList(address _address) onlyAdministrator public {\n\t    emit RemoveFromWhiteList(_address);\n\t    whitelist[_address] = false;\n\t  }\n\n\t  function onWhitelist(address _address) public view returns (bool) {\n\t    return whitelist[_address];\n\t  }\n}",
  "sourcePath": "/home/mark/drive/development/c50/contracts/WhiteList.sol",
  "compiler": {
    "name": "solc",
    "version": "0.4.24+commit.e67f0147.Emscripten.clang"
  },
  "schemaVersion": "2.0.1",
  "updatedAt": "2018-10-06T09:52:00.314Z"
}