{
  "contractName": "WhiteList",
  "abi": [
    {
      "constant": true,
      "inputs": [
        {
          "name": "_address",
          "type": "address"
        }
      ],
      "name": "isAdministrator",
      "outputs": [
        {
          "name": "",
          "type": "bool"
        }
      ],
      "payable": false,
      "stateMutability": "view",
      "type": "function"
    },
    {
      "constant": false,
      "inputs": [
        {
          "name": "_address",
          "type": "address"
        }
      ],
      "name": "removeAdministrator",
      "outputs": [],
      "payable": false,
      "stateMutability": "nonpayable",
      "type": "function"
    },
    {
      "constant": false,
      "inputs": [],
      "name": "renounceOwnership",
      "outputs": [],
      "payable": false,
      "stateMutability": "nonpayable",
      "type": "function"
    },
    {
      "constant": true,
      "inputs": [
        {
          "name": "",
          "type": "address"
        }
      ],
      "name": "administrators",
      "outputs": [
        {
          "name": "",
          "type": "bool"
        }
      ],
      "payable": false,
      "stateMutability": "view",
      "type": "function"
    },
    {
      "constant": true,
      "inputs": [],
      "name": "owner",
      "outputs": [
        {
          "name": "",
          "type": "address"
        }
      ],
      "payable": false,
      "stateMutability": "view",
      "type": "function"
    },
    {
      "constant": true,
      "inputs": [],
      "name": "isOwner",
      "outputs": [
        {
          "name": "",
          "type": "bool"
        }
      ],
      "payable": false,
      "stateMutability": "view",
      "type": "function"
    },
    {
      "constant": true,
      "inputs": [
        {
          "name": "",
          "type": "address"
        }
      ],
      "name": "whitelist",
      "outputs": [
        {
          "name": "",
          "type": "bool"
        }
      ],
      "payable": false,
      "stateMutability": "view",
      "type": "function"
    },
    {
      "constant": false,
      "inputs": [
        {
          "name": "_address",
          "type": "address"
        }
      ],
      "name": "addAdministrator",
      "outputs": [],
      "payable": false,
      "stateMutability": "nonpayable",
      "type": "function"
    },
    {
      "constant": false,
      "inputs": [
        {
          "name": "newOwner",
          "type": "address"
        }
      ],
      "name": "transferOwnership",
      "outputs": [],
      "payable": false,
      "stateMutability": "nonpayable",
      "type": "function"
    },
    {
      "anonymous": false,
      "inputs": [
        {
          "indexed": false,
          "name": "investor",
          "type": "address"
        }
      ],
      "name": "AddToWhiteList",
      "type": "event"
    },
    {
      "anonymous": false,
      "inputs": [
        {
          "indexed": false,
          "name": "investor",
          "type": "address"
        }
      ],
      "name": "RemoveFromWhiteList",
      "type": "event"
    },
    {
      "anonymous": false,
      "inputs": [
        {
          "indexed": false,
          "name": "administrator",
          "type": "address"
        }
      ],
      "name": "AddAdministrator",
      "type": "event"
    },
    {
      "anonymous": false,
      "inputs": [
        {
          "indexed": false,
          "name": "administrator",
          "type": "address"
        }
      ],
      "name": "RemoveAdministrator",
      "type": "event"
    },
    {
      "anonymous": false,
      "inputs": [
        {
          "indexed": true,
          "name": "previousOwner",
          "type": "address"
        },
        {
          "indexed": true,
          "name": "newOwner",
          "type": "address"
        }
      ],
      "name": "OwnershipTransferred",
      "type": "event"
    },
    {
      "constant": false,
      "inputs": [
        {
          "name": "_address",
          "type": "address"
        }
      ],
      "name": "addToWhiteList",
      "outputs": [],
      "payable": false,
      "stateMutability": "nonpayable",
      "type": "function"
    },
    {
      "constant": false,
      "inputs": [
        {
          "name": "_address",
          "type": "address"
        }
      ],
      "name": "removeFromWhiteList",
      "outputs": [],
      "payable": false,
      "stateMutability": "nonpayable",
      "type": "function"
    },
    {
      "constant": true,
      "inputs": [
        {
          "name": "_address",
          "type": "address"
        }
      ],
      "name": "onWhitelist",
      "outputs": [
        {
          "name": "",
          "type": "bool"
        }
      ],
      "payable": false,
      "stateMutability": "view",
      "type": "function"
    }
  ],
  "bytecode": "0x6080604081905260008054600160a060020a0319163317808255600160a060020a0316917f8be0079c531659141344cd1fd0a4f28419497f9722a3daafe3b4186f6b6457e0908290a3610707806100576000396000f3fe6080604052600436106100b95763ffffffff7c010000000000000000000000000000000000000000000000000000000060003504166301bf664881146100be5780630a2eb301146100f35780631d6086591461013a57806347ee03941461016d57806368fa8134146101a0578063715018a6146101d357806376be1585146101e85780638da5cb5b1461021b5780638f32d59b1461024c5780639b19251a14610261578063c999117614610294578063f2fde38b146102c7575b600080fd5b3480156100ca57600080fd5b506100f1600480360360208110156100e157600080fd5b5035600160a060020a03166102fa565b005b3480156100ff57600080fd5b506101266004803603602081101561011657600080fd5b5035600160a060020a031661038d565b604080519115158252519081900360200190f35b34801561014657600080fd5b506101266004803603602081101561015d57600080fd5b5035600160a060020a03166103ab565b34801561017957600080fd5b506100f16004803603602081101561019057600080fd5b5035600160a060020a03166103c9565b3480156101ac57600080fd5b506100f1600480360360208110156101c357600080fd5b5035600160a060020a031661045f565b3480156101df57600080fd5b506100f16104f2565b3480156101f457600080fd5b506101266004803603602081101561020b57600080fd5b5035600160a060020a031661055c565b34801561022757600080fd5b50610230610571565b60408051600160a060020a039092168252519081900360200190f35b34801561025857600080fd5b50610126610580565b34801561026d57600080fd5b506101266004803603602081101561028457600080fd5b5035600160a060020a0316610591565b3480156102a057600080fd5b506100f1600480360360208110156102b757600080fd5b5035600160a060020a03166105a6565b3480156102d357600080fd5b506100f1600480360360208110156102ea57600080fd5b5035600160a060020a031661063f565b610302610571565b600160a060020a031633600160a060020a0316148061032557506103253361038d565b151561033057600080fd5b60408051600160a060020a038316815290517f80f4d7be9d601c8487132194fd218772956b9b20b704060810edd362c193220c9181900360200190a1600160a060020a03166000908152600260205260409020805460ff19169055565b600160a060020a031660009081526001602052604090205460ff1690565b600160a060020a031660009081526002602052604090205460ff1690565b6103d1610571565b600160a060020a031633600160a060020a031614806103f457506103f43361038d565b15156103ff57600080fd5b60408051600160a060020a038316815290517f16220188fd357ae3d9cf432f984d1ea5c73787b829a3e72a4b807e8c0ebf5b0c9181900360200190a1600160a060020a03166000908152600260205260409020805460ff19166001179055565b610467610571565b600160a060020a031633600160a060020a0316148061048a575061048a3361038d565b151561049557600080fd5b60408051600160a060020a038316815290517f5e40a439a19faa971f5d14cf300dcd7ee0d236808b9a988c9b4ca89cb833e9619181900360200190a1600160a060020a03166000908152600160205260409020805460ff19169055565b6104fa610580565b151561050557600080fd5b60008054604051600160a060020a03909116907f8be0079c531659141344cd1fd0a4f28419497f9722a3daafe3b4186f6b6457e0908390a36000805473ffffffffffffffffffffffffffffffffffffffff19169055565b60016020526000908152604090205460ff1681565b600054600160a060020a031690565b600054600160a060020a0316331490565b60026020526000908152604090205460ff1681565b6105ae610571565b600160a060020a031633600160a060020a031614806105d157506105d13361038d565b15156105dc57600080fd5b60408051600160a060020a038316815290517f6e5eedde7d0d690d55dea362660be04ef1eb36252e48817545afb1ae6b245a409181900360200190a1600160a060020a03166000908152600160208190526040909120805460ff19169091179055565b610647610580565b151561065257600080fd5b61065b8161065e565b50565b600160a060020a038116151561067357600080fd5b60008054604051600160a060020a03808516939216917f8be0079c531659141344cd1fd0a4f28419497f9722a3daafe3b4186f6b6457e091a36000805473ffffffffffffffffffffffffffffffffffffffff1916600160a060020a039290921691909117905556fea165627a7a723058200cd1a89f05f2fa829e0d66a7019498f299c6419d810f5d5afb31383aeb4b09e60029",
  "source": "pragma solidity ^0.5.0;\n\nimport \"./Administrable.sol\";\n\n/**\n * @title WhiteList\n * @dev The WhiteList shows who can buy a token\n */\ncontract WhiteList is Administrable {\n    mapping (address => bool) public whitelist;\n    event AddToWhiteList(address investor);\n  \tevent RemoveFromWhiteList(address investor);\n\n\t  function addToWhiteList(address _address) onlyAdministrator public {\n\t    emit AddToWhiteList(_address);\n\t    whitelist[_address] = true;\n\t  }\n\n\t  function removeFromWhiteList(address _address) onlyAdministrator public {\n\t    emit RemoveFromWhiteList(_address);\n\t    whitelist[_address] = false;\n\t  }\n\n\t  function onWhitelist(address _address) public view returns (bool) {\n\t    return whitelist[_address];\n\t  }\n}",
  "sourcePath": "/home/mark/drive/development/c50/c50-token/contracts/WhiteList.sol",
  "compiler": {
    "name": "solc",
    "version": "0.5.0+commit.1d4f565a.Emscripten.clang"
  },
  "schemaVersion": "3.0.1",
  "updatedAt": "2019-02-03T06:16:00.863Z",
  "devdoc": {
    "details": "The WhiteList shows who can buy a token",
    "methods": {
      "isOwner()": {
        "return": "true if `msg.sender` is the owner of the contract."
      },
      "owner()": {
        "return": "the address of the owner."
      },
      "renounceOwnership()": {
        "details": "Allows the current owner to relinquish control of the contract."
      },
      "transferOwnership(address)": {
        "details": "Allows the current owner to transfer control of the contract to a newOwner.",
        "params": {
          "newOwner": "The address to transfer ownership to."
        }
      }
    },
    "title": "WhiteList"
  },
  "userdoc": {
    "methods": {
      "renounceOwnership()": {
        "notice": "Renouncing to ownership will leave the contract without an owner. It will not be possible to call the functions with the `onlyOwner` modifier anymore."
      }
    }
  }
}